:020000040800F2
:10000000A80700209902000897370008633000080D
:1000100095370008691500081D4B00080000000016
:10002000000000000000000000000000513B00083C
:100030006B1500080000000099370008553B0008C8
:10004000B3020008B3020008B3020008B3020008BC
:10005000B3020008B3020008B3020008B3020008AC
:10006000B3020008B3020008B3020008B30200089C
:10007000B3020008B3020008B3020008B30200088C
:10008000B302000800000000B3020008B302000839
:10009000B3020008B3020008B3020008B30200086C
:1000A000B3020008B3020008B3020008B30200085C
:1000B000B3020008B3020008B3020008B30200084C
:1000C000B3020008B3020008B3020008B30200083C
:1000D000B3020008114B0008B3020008B302000885
:1000E000B3020008B3020008B3020008B30200081C
:1000F000B3020008B3020008B302000800000000C9
:1001000000000000B302000800000000B302000875
:10011000B302000800000000B3020008B3020008A8
:10012000B3020008B3020008B3020008B3020008DB
:10013000B30200080000000000000000B302000845
:10014000B3020008B3020008000000000000000035
:10015000000000000000000000000000000000009F
:10016000000000000000000000000000B3020008D2
:10017000B3020008000000000000000000000000C2
:1001800000000000B30200080000000000000000B2
:10019000000000000000000000000000000000005F
:1001A0000000000000000000B3020008B3020008D5
:1001B000B3020008B3020008B30200080000000008
:1001C00000000000B3020008000000000000000072
:1001D000B3020008B302000800F002F800F04CF887
:1001E0000AA090E8000C82448344AAF10107DA4592
:1001F00001D100F041F8AFF2090EBAE80F0013F098
:10020000010F18BFFB1A43F001031847D067000025
:10021000F0670000103A24BF78C878C1FAD85207B6
:1002200024BF30C830C144BF04680C607047000070
:100230000023002400250026103A28BF78C1FBD8EF
:10024000520728BF30C148BF0B607047662905F0D0
:100250007082642900F0CC80002070471FB505F043
:100260005EFA00F097FC04000020002104F0B8FFC3
:10027000E0601FBD10B510BD00F088FD1146FFF70E
:10028000EDFF04F037FF00F0A6FD03B4FFF7F2FF27
:1002900003BC00F0A7FD000009488047094800475B
:1002A000FEE7FEE7FEE7FEE7FEE7FEE7FEE7FEE726
:1002B000FEE7FEE704480549054A064B7047000083
:1002C000413C0008D9010008A8010020A80700202F
:1002D000A8030020A803002053EA020C00F0698064
:1002E0002DE9F04B4FF00006002B1FBFB3FA83F54A
:1002F00003FA05F424FA05F65E4012BF1643B2FA7B
:1003000082F502FA05F4C5F120051EBF22FA05FCAC
:1003100044EA0C04203556EA044C4FEA144418BF52
:10032000641C4FF000084FF00009904271EB030C81
:1003300039D3002919BFB1FA81F701FA07F6B0FAEB
:1003400080F700FA07F6C7F120071EBF20FA07FC66
:1003500046EA0C062037B6FBF4FCA7EB0507103F76
:1003600007F01F0BCBF120060CFA0BFB2CFA06F65C
:1003700044BFB3460026202FA4BF5E464FF0000BBB
:100380005BEA060C08BF4FF0010B19EB0B09ABFB46
:10039000027C48EB0608C01B06FB02CC0BFB03CC1F
:1003A00071EB0C01C1E70B46024641464846BDE8E9
:1003B000F08B13B54FF000004FF00001AFF3008059
:1003C000BDE81C40704700000FB41CB5074B06AADF
:1003D0007B4469460090059800F0C3FB0020694605
:1003E00000F0D2FB1CBC5DF814FB0000B507000058
:1003F0002DE9F0410646002410687529314616A5FE
:1004000010D0AFF30080002802DA404213A507E0C5
:1004100031688A0701D512A502E0490704D511A564
:10042000012401E0AFF3008000210A2206F1240735
:1004300009E0B0FBF2FCB0FBF2F302FB1C00303031
:1004400078541846491C0028F3D123462A463046E2
:10045000BDE8F04100F019B9000000002D000000D7
:100460002B000000200000002DE9F0474FF0000AAB
:1004700089460446C0F820A02046E1688847002845
:1004800076D0252806D0D4E901219047206A401C67
:100490002062F1E7E168204600258847C4F81CA0E7
:1004A00006460027C4F818A02A2E09D0304604F0CA
:1004B0005EFB38B304EB8708303EC8F8186019E0DB
:1004C00059F8041B204604EB87029161E1688847D4
:1004D000012F064618D1E069002820DA25F0200512
:1004E0001DE0D8F8180000EB800006EB4000303823
:1004F000C8F818002046E1688847064604F037FB34
:100500000028EED1012F0AD02E2E08D12046E16816
:1005100088477F1C0646022F45F02005C4DBA069F2
:10052000002803DA404245F00105A061E80701D048
:1005300025F01005B6B1A6F14100192802D82036E1
:1005400045F400654A463146204625604D46FFF792
:100550007DFE58B1012806D0ED1D25F0070000F101
:10056000080989E704E005F1040985E730468AE7D0
:10057000206ABDE8F08710B5431C02E010F8011BAB
:1005800071B18107FAD14FF0013202C88C1A8C4345
:1005900014EAC211F9D0C01A0A0603D0C01E10BD59
:1005A000C01A10BD0A0401D0801E10BD0902FCD083
:1005B000401E10BD4FF0000200B51346944696460B
:1005C000203922BFA0E80C50A0E80C50B1F1200166
:1005D000BFF4F7AF090728BFA0E80C5048BF0CC014
:1005E0005DF804EB890028BF40F8042B08BF704772
:1005F00048BF20F8022B11F0804F18BF00F8012BE4
:10060000704700004FF0013C50F8042B51F8043BB8
:100610009A4221D1A2EB0C03934313EACC1317D1D6
:1006200050F8042B51F8043B9A4215D1A2EB0C036D
:10063000934313EACC130BD150F8042B51F8043B2D
:100640009A4209D1A2EB0C03934313EACC13DBD0FB
:100650004FF00000704700BFD01A01BAB1FA81F123
:1006600001F0180122FA01F0CB40C1F12001DBB208
:10067000C0B2C01A2CFA01F3D11A914311EAC31186
:10068000E6D170477047704770472DE9F0470D4637
:1006900099469246044600F124080168880604D56C
:1006A000E06921F01001216000E00120A84201DD95
:1006B000471B00E00027A1697A1902EB0900081A1C
:1006C000A0612078C00602D42046AFF30080002647
:1006D00008E0D4E901211AF806009047206A401C7E
:1006E000761C20624E45F4DB2078C0060AD52046F1
:1006F000AFF3008006E0D4E9012130209047206A62
:10070000401C2062381EA7F10107F4DC07E0D4E9A1
:10071000012118F805009047206A401C2062281E1D
:10072000A5F10105F3DC2046AFF300802078000638
:1007300002D50220BDE8F0870120FBE770472DE9D4
:10074000FF4F0C461E464FF0FF378BB0D2E9000139
:10075000DDF860800A908A46C1F30A5505B93D4626
:10076000002108464FF00000BAF1000F00F44000ED
:1007700005DA00EB80004FF4400101EA50004FEA37
:100780009059B9F1010F00DDB9460A9850EA4A00C4
:100790000ED044F61050A5F2FF3545432F14B8F1A2
:1007A000000F1ED07542291E1EDDC9F100021CE09B
:1007B000B8F1010F4FF0000001D0302103E0F24307
:1007C00005E02154401CB042FBDB304600220021F2
:1007D00021540B99C1F80880C1E900200FB0BDE891
:1007E000F08FBD1B6D1CDEE74A4600DA694206A8A1
:1007F00000F05AFA06AB93E8070003AB83E8070062
:1008000050460A9900F0F5FA8DE80700A0F500506F
:100810001F3800900398002D09DD42F21F014A465F
:10082000084403A90390684600F054FD08E0A0F5D1
:1008300000504A461F3803A90390684600F05EFD49
:100840008DE807000004000C03D04FF0FF30410892
:1008500000E01046B8F1000F03D0002200921546C8
:100860001EE0751E05D400F099F9303262556D1EF8
:10087000F9D5B3460122084302D000227F1C04E0D0
:100880002078302801D100227F1E002A099786D0C7
:100890001DE0112D07DA00F081F9303262556D1C30
:1008A00050EA0102F5D1084302D00098C8B10EE029
:1008B0000021681E05E0235C625C63542254401EE4
:1008C000491C8142F7DBAB46A81B401E0990002063
:1008D00004F80B000B98099AC0F80880C0E9002BB7
:1008E0007CE711264FF0000859E72DE9F04F8846C4
:1008F0000446D21D22F0070191B0D1E90001CDE9F3
:100900000A0104F00CF902460B98C00F01D02D200B
:1009100007E02068810701D52B2002E0202101EAB1
:10092000C000032A099001D0072A05DB034641468F
:10093000204600F079F90BE12078800601D5E069C6
:1009400000E00620B8F1650F814606D0B8F1660FC9
:1009500018D0B8F1670F70D131E00020B9F1110F54
:10096000009001DB112301E009F101030AAA01A9AA
:100970000CA8FFF7E4FEDDE90C70002609F1010583
:10098000834647E001204B4600904FF000470AAAFB
:1009900001A90CA8FFF7D3FEDDE90DB00C995D4667
:1009A000002610B909F101000D18B9EB050003D4B8
:1009B000C0F1FF3609F10105A5EB09002BE0B9F103
:1009C000010F01DA4FF001090020B9F1110F009079
:1009D000484601DD112300E003460AAA01A90CA83C
:1009E000FFF7ADFEDDE90C704D460026834620780A
:1009F00000070AD4AB4500DA5D4601A8012D04DDED
:100A0000411911F8011C302907D04F4502DA17F1BE
:100A1000040F04DA012082460FE06D1EEEE7002F7E
:100A200002DCED1B3E4403E0781CA84200DD7D1C87
:100A3000B81B00F1010A4FF000472078000703D4EB
:100A4000AA4501DB4FF0FF3A0021B7F1004F0DF14D
:100A500043088DF8431024D002202B23002F01DA05
:100A60007F422D230A21021EA0F1010000DC5FB1AC
:100A700097FBF1FC97FBF1F201FB1C7C17460CF194
:100A8000300C08F801CDEEE7A8F1010003702188D1
:100A9000090501D5452100E06521A0F1010800F814
:100AA000011C09980FA9A1EB0807FF1D00B1012047
:100AB000411901EBEA70A1693844081A401EA0618F
:100AC0002078C00602D42046AFF30080099828B1F0
:100AD000D4E901219047206A401C20622078C0069A
:100AE00022D52046AFF300801EE0002E04DBB34584
:100AF00002DD01A8805D00E03020D4E901219047AB
:100B0000206A401C2062761CAAF101005FEA000AFC
:100B10000AD100F03FF8C0680168405CD4E90121C7
:100B20009047206A401C2062281EA5F10105DCDCEC
:100B300007E0D4E9012118F8010B9047206A401C16
:100B40002062381EA7F10107F3DC2046AFF30080D6
:100B5000032011B043E6000001694A1C02610878D5
:100B6000704700B58FB0CDE90131002105910549ED
:100B70007944CDE9031011466846FFF775FC0FB0C4
:100B800000BD0000E5FFFFFF0A6802F8010B0A60E4
:100B900070470000004870476801002030B5B0F190
:100BA0000A024FEA900E71F100034EEA817EB0EB2B
:100BB0000E0061EB91014FEA101E4EEA017E10EB30
:100BC0000E0041EB11114FEA102E4EEA016E10EBB0
:100BD0000E0041EB11214FEA104E4EEA014E10EB90
:100BE0000E0041EB1141401841F100014FEAD000E5
:100BF00040EA41704FEAD10110EB80054FEA8104D1
:100C000044EA907444EB01046D1944EB0404521B54
:100C1000A3414FF0000348BF0A3200D530BD401C4D
:100C200041F1000130BD00002DE9F0411F460446AE
:100C300003260168072A01F4006004DB08B116A549
:100C400005E016A503E008B115A500E015A521F003
:100C500010002060A069C01EA0610FB1401EA061FD
:100C60002046AFF300804FB1D4E9012138469047C8
:100C7000206A401C2062C01C206206E0206AFAE75D
:100C8000D4E9012115F8010B9047761EF8D22046D1
:100C9000AFF30080BDE8F0814E414E006E616E0002
:100CA000494E4600696E66002DE9F04781461646BA
:100CB0008AB0334878440DC88DE80D003048784438
:100CC000801C03AC0DC884E80D0041F69B3008443D
:100CD000372190FBF1F290FBF1F5A5F1800501FBC6
:100CE00012041B3C02D56442012000E00020DFF822
:100CF00090A080460027FA44AAF1BE0A0DE0E00762
:100D000009D03246684607EB47010AEB810100F043
:100D1000F5FA8DE8070064107F1C002CEFD1184F06
:100D20007F44AC3F18E0E80714D007EB04100DF146
:100D3000180A90E80E008AE80E00C068F04201D15F
:100D400098190890324606A903A800F0D7FA03AB19
:100D500083E807006D10641C002DE4D1324669461B
:100D6000B8F1000F03A802D000F0B4FA01E000F0DF
:100D7000C5FAC9E90001C9F808200AB0BDE8F08742
:100D80000C5D000000487047480100207546FFF7E1
:100D9000F9FFAE4605006946534620F00700854638
:100DA00018B020B5FFF786FABDE820404FF00006E6
:100DB0004FF000074FF000084FF0000B21F0070143
:100DC000AC46ACE8C009ACE8C009ACE8C009ACE886
:100DD000C0098D4670470446AFF300802046FFF7F8
:100DE00054FA000001491820ABBEFEE726000200BD
:100DF00070475FEA400C08BF91F0000F4FEA8C2368
:100E00004FEAC12243EA51514FEA1C5018BF00F586
:100E1000F0404FEA300018BF41F000415FEA6C5CDF
:100E200000F02980BCF1FF3F08BF40F080407047D0
:100E3000130C06BF12044FF0100C4FF0000C130EF1
:100E400004BF12020CF1080C130F04BF12010CF1C5
:100E5000040C930F04BF92000CF1020CD30F04BFDB
:100E600052000CF1010C11464FF00002A0F11F00DE
:100E7000A0EB0C00704711F0004F08BF704731F035
:100E800000413FF4D5AF0B0C06BF09044FF0100C26
:100E90004FF0000C0B0E04BF09020CF1080C0B0FF5
:100EA00004BF09010CF1040C8B0F04BF89000CF185
:100EB000020CCB0F04BF49000CF1010CCCF1200354
:100EC000A0EB0C0022FA03F302FA0CF241EA030150
:100ED00000F10100704720F07F4C80EA030023F00E
:100EE0007F47ACEB070303F57C5300F0004003F1B0
:100EF000FF032DE980494FEA154B09B44FEA14432B
:100F000025EA0B4E24EA03480FF2042606EB1327CA
:100F100049083E785FEA320203FB0667C7F500071F
:100F200007FB06F64FEA54374FEAD64606F10206AB
:100F300007FB066CCCF1005C4FEA1C472CEA074C1F
:100F400007FB06F40CFB06F504EB15464FEA961674
:100F500034BF00204FF000404FEAD13706FB07FCBA
:100F60004FEA1C4C0CFB0BF7D21B03FB0CF761EB9D
:100F700007010CFB0EF7B0EB074072EB17420CFBBE
:100F800008F734BFA2EB0742B2EB074261EB17410F
:100F90004FEA0C444FEA910706FB07FC4FEA1C4C52
:100FA0000CFB0BF7B0EBC74072EB573203FB0CF7AF
:100FB00034BFA2EBC742B2EBC74261EB57310CFB27
:100FC0000EF7B0EBC70072EB57720CFB08F734BF9B
:100FD000A2EBC702B2EBC70261EB5771039F4FEA66
:100FE000816141EA921104EBCC044FEAD1374FEA18
:100FF000826206FB07FC42EA90124FEA80604FEAE9
:101000001C4C0CFB0BF7D21B03FB0CF761EB07012D
:101010000CFB0EF7B0EB074072EB17420CFB08F726
:1010200034BFA2EB0742B2EB074261EB17414FEA34
:101030008C554FEA910704EB9C2406FB07FC4FEA12
:101040001C4C0CFB0BF7B0EBC74072EB573203FBA9
:101050000CF734BFA2EBC742B2EBC74261EB57318A
:101060000CFB0EF7B0EBC70072EB57720CFB08F7E6
:1010700034BFA2EBC702B2EBC70261EB577115EBAD
:101080004C254FEA816141EA92114FEA82624FEAB0
:10109000D13742EA901206FB07FC44F100044FEA04
:1010A00080604FEA1C4C0CFB0BF7D21B03FB0CF7C8
:1010B00061EB07010CFB0EF7B0EB074072EB174238
:1010C0000CFB08F734BFA2EB0742B2EB074261EB1F
:1010D000174115EB1C154FEA813141EA92414FEA65
:1010E000823242EA90424FEA80304FEA0C7644F175
:1010F000000448EA03434EEA0B484FF0000EB2EBFF
:10110000080C71EB030724BF624639464EEB0E0E06
:101110004FF0000B0018524149414BEB0B0BB2EB67
:10112000080C71EB03077BF1000B24BF62463946C4
:101130004EEB0E0E4FF0000B0018524149414BEBA5
:101140000B0BB2EB080C71EB03077BF1000B24BF18
:10115000624639464EEB0E0E51EA020718BF46F0C2
:10116000010616EB0E7655F1000254F1000103D58D
:10117000BDE88901BDE80088BDE88901BDE80048F7
:10118000B619524141EB0101A3F101037047808080
:101190007F7E7D7C7B7A79787776767574737271D1
:1011A00071706F6E6E6D6C6C6B6A6A696868676689
:1011B00066656464636362616160605F5F5E5E5D1B
:1011C0005D5C5C5B5B5A5A5959585857575656558F
:1011D00055555454535352525251515050504F4FF1
:1011E0004F4E4E4D4D4D4C4C4C4B4B4B4A4A4A4941
:1011F0004949484848474747474646464545454484
:101200004444444343434342424242414141002B10
:1012100026D4770021D01CB54FEA370703B44FF02E
:1012200010004FF010014FF000000FBCBDE810405F
:101230000BF1010BBBF1010F08BF5FEA170722BFDB
:1012400012F1010211F101014FF0004143F10003DD
:1012500000F0004043EA00007047F9D35708DAE78E
:1012600046EA064613F1400F4FEA16461FDD13F11A
:10127000200FDFBF16430A46002120335B42C8D04F
:10128000C3F1200746EA064602FA07F74FEA164678
:1012900046EA0706C3F1200722FA03F201FA07F72C
:1012A00021FA03F14FF0000342EA0702B1E746EAF0
:1012B000020646EA06464FEA164646EA0106BCBF63
:1012C00046EA0646360C4FF000034FF000024FF09E
:1012D00000019EE72DE9C048934630B491E83800FC
:1012E00007C831EA400C48BF34EA430C03D5FFF786
:1012F000F2FDFFF78CFFF0BCBDE800882DE9C04887
:10130000934630B491E8380007C810F0804F08BF0A
:1013100013F0804F03D100F005F8FFF778FFF0BC21
:10132000BDE8008820F07F4780EA030023F07F4C6F
:1013300007EB0C03A3F57C5300F00040A3F1FE0380
:1013400092F0000F00F0B38095F0000F00F077806E
:101350002DE901494FEA11404FEA144621EA0048BD
:1013600000FB06FC24EA064708FB06F607FB08F824
:1013700000FB07F718EB06484CEB164C4FEA124BF4
:1013800018EB07484FEA15464CEB174022EA0B4E84
:101390000BFB06FC25EA06470EFB06F607FB0EFED6
:1013A0000BFB07F71EEB064E4CEB164C4FF00006FE
:1013B0001EEB074E4CEB174B18EB0B0840F10000EF
:1013C00018EB0E0B58EB000840F100008F1A4FF09D
:1013D00000013CBFC943661B14BFB5EB040C0021E0
:1013E0003CBFC943F61B4FEA17444EEA8E0E27EA6C
:1013F00004454FEA1C4704FB07622CEA074C05FB37
:1014000007F70CFB05F604FB0CFC16EB074642EB5A
:10141000174216EB0C4642EB1C421BEB060658EB40
:101420000202414146EA9E0601D5BDE80189B6198E
:10143000524141EB0101A3F10103BDE801894FEAEB
:1014400014454FEA114724EA054621EA074C05FBFB
:1014500007F406FB07F70CFB06F105FB0CFC11EB90
:10146000074144EB17444FEA124711EB0C4144EBA0
:101470001C4422EA074C05FB07F206FB07F70CFBAE
:1014800006F605FB0CFC16EB074642EB174216EB83
:101490000C4642EB1C456A1854F1000148BF7047E6
:1014A000B619524141EB0101A3F10103704795F0D8
:1014B000000F37D04FEA11424FEA144721EA0246A3
:1014C00024EA074C02FB07F106FB07F70CFB06F4C6
:1014D00002FB0CFC14EB074441EB17414FEA1547A4
:1014E00014EB0C4441EB1C4125EA074C02FB07F5C9
:1014F00006FB07F70CFB06F602FB0CFC16EB074697
:1015000045EB174516EB0C4645EB1C42121951F101
:10151000000148BF7047B619524141EB0101A3F1E8
:10152000010370474FEA14454FEA114724EA054684
:1015300021EA074C05FB07F106FB07F70CFB06F257
:101540004FF0000605FB0CFC12EB074241EB174184
:1015500012EB0C4251EB1C4148BF7047921841EB13
:101560000101A3F101037047FEE77047002240F636
:10157000B83306E00021491C89B29942FBD3521CC2
:1015800092B28242F6D370477CB51B4CE0690028CA
:1015900031D0002003F0EEFD04F138052860012071
:1015A00003F0E8FD6860022003F0E4FD00EE100A9D
:1015B0000320B8EE400A8DED000A03F0DBFD00EEDB
:1015C000100A00206A46B8EE400A04F130018DEDA1
:1015D000010AB2EE040A00BF02EB8003D3ED000A59
:1015E00001EB8003401C80EE801A022883ED001A74
:1015F000F2DB0020E0617CBD000000201CB5114A38
:1016000000206946F2EE040A02EB800393ED000A23
:1016100020EE200ABDEEC00A10EE103A41F820304C
:10162000401C0228F0DB00980221C0B203F0C0FD8C
:101630000A2000F08FF801980321C0B203F0B8FD32
:101640001CBD00003000002010B5074C00212078A0
:1016500003F0AEFD0A2000F07DF82079BDE81040CF
:10166000012103F0A5BD00003800002072B6FEE79E
:1016700010B590F8253000210122022B03D004215F
:10168000C163012122E003681C6824F00E041C6081
:10169000836C1C6824F480741C6003681C6824F04C
:1016A00001041C6090F84430046C03F01F0302FA3C
:1016B00003F36360D0E913345C60436D33B11C689D
:1016C00024F480741C60D0E916345C6080F8252016
:1016D000002280F82420084610BD70B590F825201F
:1016E000002401212346022A07D00422C26380F885
:1016F000251080F82430012429E00268156825F0BF
:101700000E0515600268156825F001051560826CEC
:10171000156825F48075156090F84420056C02F07A
:101720001F0201FA02F26A60D0E913255560426D8A
:1017300032B1156825F480751560D0E9162555601D
:1017400080F8251080F82430816B01B1884720464D
:1017500070BD000070B5044600F044F90546601CF9
:1017600002D004484068044400F03CF9401BA04209
:10177000FAD370BD5C0000202DE9F04FDFF8209215
:10178000002301260324A9F1040B85B00F2709F1DA
:10179000040AABF1040EFAE006FA03F52A407CD005
:1017A00091F804C00CF0030CBCF1010F02D0BCF1A5
:1017B000020F26D1D0F808C0CDF800C04FEA430C84
:1017C00004FA0CF8CDF810C0DDF800C02CEA080CC3
:1017D000CDF800C0D1F80C80DDF810C008FA0CF884
:1017E000DDF800C048EA0C08C0F80880D0F804C052
:1017F0002CEA050C0D79C5F300159D4045EA0C0552
:1018000045600D79ED43AD070ED0C5684FEA43083A
:1018100004FA08FC25EA0C05D1F808C00CFA08FC0B
:101820004CEA050CC0F80CC00D7905F00305022D3B
:1018300016D1DD0800EB850CCDF808C0DCF820805F
:101840005D074FEAD56C07FA0CF528EA05080D6923
:1018500005FA0CF5DDF808C045EA0805CCF820507B
:1018600005684FEA430CCDF808C004FA0CFC25EAE1
:101870000C0591F804C00CF00308DDF808C008FA64
:101880000CF848EA0508C0F800804D6815F4403FA0
:101890007CD0444DD5F860C000E077E04CF0010CFE
:1018A000C5F860C02D6E23F0030C05F0010500950E
:1018B0003D4D65440295AD684FEA837C4FEA1C7844
:1018C00007FA08FC25EA0C05B0F1904F06D0DFF8C6
:1018D000DCC0604505D14FF0010C20E04FF0000C5A
:1018E0001DE0DFF8CCC0604502D14FF0020C16E0DD
:1018F000DFF8C0C0604502D14FF0030C0FE0DFF805
:10190000B8C0604502D14FF0040C08E0DFF8ACC06D
:10191000604502D14FF0050C01E04FF0060C0CFAC7
:1019200008FC4CEA050C029DC5F808C0D9F8005027
:10193000CC46D1F8048095435FEAC82800D515430A
:10194000CCF80050DAF80050D446D1F80480954322
:101950005FEA882800D51543CCF80050DBF800502A
:10196000DC46D1F8048095435FEA883800D51543FA
:10197000CCF80050DEF80050F446D1F804809543CE
:101980005FEAC83800D51543CCF800505B1C0A68E4
:1019900032FA03F57FF400AF05B0BDE8F08F000028
:1019A000080401400010024000000140000400480B
:1019B00000080048000C00480010004800140048CF
:1019C0000069084000D001207047426921EA020303
:1019D0000A4043EA0241816170470AB18161704760
:1019E0008162704701488068704700005C000020F9
:1019F0000248816842681144816070475C000020A1
:101A000010B50024032000F073F80F2000F008F850
:101A100008B1012401E000F025F8204610BD0000C7
:101A200070B50E4E05460024706898B14FF47A7177
:101A3000B1FBF0F00A490968B1FBF0F000F062FD7B
:101A400040B9102D06D200222946501E00F030F871
:101A5000356000E00124204670BD00005C000020DD
:101A6000680000200A4882B0016E41F00101016661
:101A7000016E01F001010091816D41F0805181659D
:101A8000806D00F08050009002B000F0A1B800001E
:101A900000100240002809DB00F01F0201219140E4
:101AA0004009800000F1E020C0F8001170470000FC
:101AB000F0B40E4B1B680C46C3F30223C3F10705B9
:101AC000042D00D90425191D072901D2002300E0A7
:101AD000DB1E012606FA05F1491E214099409E4071
:101AE000761E16403143F0BC03F031B80CED00E037
:101AF000064900F0070208684FF6FF03184040EA65
:101B00000220034A10430860704700000CED00E01B
:101B10000000FA052B492C4B0A6832214A432B4915
:101B200040B1B0F5007F086829D020F4C06040F4CF
:101B300080602CE00868C0F34120022804D051F8EE
:101B4000800F20F4807022E0D1F8800020F48070B3
:101B5000C1F88000086820F4C06040F4007008609C
:101B6000B2FBF3F0401C00E0401E4A69520501D56B
:101B70000028F9D1486940050AD503207047C0F311
:101B80004120022806D051F8800F40F48070086090
:101B900000207047D1F8800040F48070C1F88000C8
:101BA000086820F4C06040F400700860B2FBF3F0F5
:101BB000401C00E0401E4A695205DBD50028F9D1DF
:101BC000D8E700006800002040420F00007000408D
:101BD0000248816841F48041816070470070004094
:101BE0002DE9F8430446006800269D4D00035ED5AC
:101BF000A86D0027C00008D4A86D40F08050A865EB
:101C0000A86D012700F080500090DFF85892D9F8B5
:101C1000001041F48071C9F80010FFF7E3FE804620
:101C200006E000BFFFF7DEFEA0EB080002282BD87D
:101C3000D9F80000C005F5D5D5F8900010F4407033
:101C400014D0216C814211D0D5F89000D5F89010B5
:101C500020F4407041F48031C5F89010D5F8901010
:101C600021F48031C5F89010C5F89000C00711D05C
:101C7000FFF7B8FE804641F2883907E0FFF7B2FE71
:101C8000A0EB0801494501D903260BE0D5F89000E7
:101C90008007F3D5D5F89000216C20F440700843FC
:101CA000C5F890001FB1A86D20F08050A86520787D
:101CB000C00707D0D5F88800616820F0030008430A
:101CC000C5F888002078800707D5D5F88800A16876
:101CD00020F00C000843C5F888002078400707D59D
:101CE000D5F88800E16820F030000843C5F8880086
:101CF0002078000707D5D5F88800216920F0C000BA
:101D00000843C5F888002078800607D5D5F88800F4
:101D1000616920F440600843C5F8880020784006D7
:101D200007D5D5F88800A16920F440500843C5F8CC
:101D300088002078000607D5D5F88800E16920F4EE
:101D400040400843C5F888002088C00507D5D5F86D
:101D50008800216A20F440300843C5F888002088B4
:101D6000800507D5D5F88800616A20F44020084333
:101D7000C5F88800208840050FD5D5F88800A16AED
:101D800020F440100843C5F88800A06AB0F5801F11
:101D900003D1E86840F48010E860208800050FD582
:101DA000D5F88800E16A20F440000843C5F88800AF
:101DB000E06AB0F5800F03D1E86840F48010E86075
:101DC0002088C0040FD5D5F88800216B20F0407022
:101DD0000843C5F88800206BB0F1807F03D1E86824
:101DE00040F48010E86020884FF0006180040ED538
:101DF000D5F88800626B20F040601043C5F8880079
:101E0000606B884203D1E86840F48010E860208865
:101E100040040ED5D5F88800A26B20F04060104336
:101E2000C5F88800A06B884203D1E86840F48010B0
:101E3000E860208800040FD5D5F88800E16B20F019
:101E400040500843C5F88800E06BB0F1805F03D1D3
:101E5000E86840F48030E8603046BDE8F883000070
:101E600000100240007000402DE9F0470E460500CA
:101E70004FF0000725D0DFF8AC81D8F8000000F063
:101E80000F00B0420CD2D8F8001021F00F013143FE
:101E9000C8F80010D8F8000000F00F00B04210D1D0
:101EA0002968614CC80741F2883A5AD06868DFF85F
:101EB0007C91032808D0022820682DD040050028F6
:101EC0002CDB0120BDE8F08720688001F9D5E068AF
:101ED00000F00302E068C0F30310401C032A19D08D
:101EE000534A00BFB2FBF0F0E268C2F3062250434F
:101EF000E268C2F34162521C5200B0FBF2F0484566
:101F000017D9A06810F0F00F0CD0880711D5A86879
:101F100040B10EE0474AE5E78003D0E700F0B6F8AD
:101F2000484506D9A06820F0F00040F08000A0608D
:101F30008027A068696820F003000843A060FFF7CD
:101F400051FD814606E000BFFFF74CFDA0EB090103
:101F500051453AD8A068696800F00C00B0EB810FD9
:101F6000F2D12868810714D5400703D5A06840F452
:101F7000E060A0602878000705D5A06820F46050D4
:101F800040F4E060A060A068A96820F0F000084379
:101F900004E0802F03D1A06820F0F000A060D8F802
:101FA0000010404601F00F01B14216D9016821F03E
:101FB0000F0131430160FFF715FD074607E000BF41
:101FC000FFF710FDC11B514501D903207AE7D8F86E
:101FD000000000F00F00B042F2D12878400705D58C
:101FE000A068E96820F4E0600843A0602878000752
:101FF00006D5A068296920F4605040EAC100A060BD
:1020000000F044F8A1680C4AC1F30311515C01F0DF
:102010001F01C8400949086009480068BDE8F04749
:10202000FFF7FEBC002002400010024000B4C404D0
:102030000024F40000127A002E69000868000020D5
:102040005C0000200548064900688968054AC1F31C
:102050000221515C01F01F01C84070476800002058
:10206000001002403E69000805480649006889687A
:10207000054AC1F3C221515C01F01F01C8407047FD
:1020800068000020001002403E690008184910B5A1
:102090008868C0F381021748012A0BD08A68431070
:1020A000C2F38102022A06D08A68C2F38102032A9F
:1020B00003D0002010BD184610BDCA6802F003040A
:1020C000CA68C2F30312521C032C02D0B0FBF2F018
:1020D00001E0B3FBF2F0CA68C968C2F306225043BC
:1020E000C1F34161491C4900B0FBF1F010BD000093
:1020F000001002400024F4002DE9F84304007AD0D7
:102100002078FA4DC00747D0A868E96800F00C00B5
:1021100001F003010C2802D0082817D001E00329A0
:1021200014D06068B0F5803F17D0B0F5A02F2868B4
:1021300017D020F480302860286820F480202860A0
:102140006068E0B1FFF74EFC064614E028688003A3
:1021500022D560680028D2D01EE0286840F4803084
:10216000EDE740F480202860F7E700BFFFF73AFC76
:10217000801B642870D828688003F7D50CE0FFF72F
:1021800031FC064605E000BFFFF72CFC801B6428ED
:10219000F0D828688003F7D4207880074CD5A86849
:1021A000E96800F00C0001F003010C2802D00428BB
:1021B0000DD001E002290AD0E068002828682BD061
:1021C00040F480702860FFF70DFC064619E028688F
:1021D000400502D5E068002891D06868217C20F095
:1021E000FE4040EA01606860C1480068FFF718FCE3
:1021F000002800D120E076E1FFF7F4FB801B0228E5
:10220000B8D828684005F7D56868217C20F0FE40E2
:1022100040EA016068600FE020F480702860FFF7FA
:10222000E1FB064605E000BFFFF7DCFB801B022850
:10223000A0D828684005F7D42078000729D5606920
:102240000028D5F8940013D040F00100C5F89400A0
:10225000FFF7C8FB064606E090E000BFFFF7C2FBB1
:10226000801B022886D8D5F894008007F6D510E0A8
:1022700020F00100C5F89400FFF7B4FB064604E027
:10228000FFF7B0FB801B022878D8D5F894008007B0
:10229000F6D42078400761D5A86D0026C00008D488
:1022A000A86D40F08050A865A86D012600F0805010
:1022B000009090480168C90511D40168804641F436
:1022C00080710160FFF78EFB074604E0FFF78AFB91
:1022D000C01B022852D8D8F80000C005F6D5A06867
:1022E000012815D00528D5F8900016D020F001005F
:1022F000C5F89000D5F8900020F00400C5F89000D3
:10230000A06841F28838B8B1FFF76CFB07460EE0D1
:10231000D5F8900040F00100F0E740F00400C5F867
:102320009000F5E7FFF75EFBC11B414526D8D5F8C5
:1023300090008007F6D50CE0FFF754FB074604E059
:10234000FFF750FBC11B414518D8D5F89000800716
:10235000F6D41EB1A86D20F08050A86520788006C4
:1023600029D5A0690028D5F8980013D040F00100C5
:10237000C5F89800FFF736FB064606E077E000BF99
:10238000FFF730FB801B022877D8D5F8980080072C
:10239000F6D510E020F00100C5F89800FFF722FB09
:1023A000064604E0FFF71EFB801B022865D8D5F81F
:1023B00098008007F6D4E069F0B3A968C1F3810101
:1023C000032961D00228286820F0807028600BD093
:1023D000E86820F00300E860E86847490840E860E2
:1023E000FFF700FB04464BE0FFF7FCFA064604E06B
:1023F000FFF7F8FA801B02283FD828688001F7D43D
:10240000F4E908016FF00F0202EB01110843218A81
:102410005204490802EB4151A26841EA02210843F3
:10242000217D4FF07E42490802EB41610843217B48
:1024300040EAC160E96800E062E0304A11400843C8
:10244000E860286840F080702860E86840F080709C
:10245000E860FFF7C7FA044605E000BFFFF7C2FADD
:10246000001B022809D828688001F7D548E004E05D
:10247000FFF7B8FA001B022802D90320BDE8F88351
:1024800028688001F4D43BE00128F7D0E868226A8C
:1024900000F00301914226D1616A00F0F0020901C7
:1024A000103991421FD1A26A00F4FE41B1EB022F14
:1024B00019D194F82C2000F07841B1EBC26F12D101
:1024C000218E00F4C00249084905A1F5001191428E
:1024D00009D194F8341000F0C06049084906A1F110
:1024E000007181420CD00120C8E7000000100240BA
:1024F0005C00002000700040FFFFEEFE0C809F019A
:102500000020BBE710B5401EB0F1807F01D3012051
:1025100010BD4FF0E02460610F21601702F017FB3F
:102520000020A06107202061002010BDF0B590F8C8
:102530003C20012A3AD0012580F83C50022280F844
:102540003D2003685A689C68194E1A4FB34201D067
:10255000BB4204D122F4700C4A6842EA0C02DFF854
:1025600058C002EA0C02D1F800C04CEA020CC3F8D1
:1025700004C00268B2420DD0B2F1804F0AD00F4BB6
:102580009A4207D00E4B9A4204D0BA4202D00D4B69
:102590009A4204D1896824F080031943916080F83D
:1025A0003D50002180F83C100846F0BD0220F0BDEF
:1025B000002C0140003401408FFFFFFD000400406B
:1025C000000800400040014010B5040003D094F81A
:1025D0003D0010B107E0012010BD002084F83C0050
:1025E000204600F023F8022084F83D00211D2068D9
:1025F00001F02EFB012084F8480084F83E0084F8A6
:102600003F0084F8400084F8410084F8420084F8D8
:10261000430084F8440084F8450084F8460084F8B8
:10262000470084F83D00002010BD000008B5006898
:10263000B0F1804F08D10548816D41F001018165FD
:10264000806D00F00100009008BD00000010024005
:1026500070B5044690F83C000025012814D00126EE
:1026600084F83C60022084F83D0022689068364B74
:10267000184020F47F409060086870282ED010DC4D
:1026800010F00F0F03D021E04FF0020070BD4FEAB1
:102690002012072A1AD2DFE802F0525252524A3868
:1026A00040002A4BC21A984249D009DCB0F5805F3D
:1026B0000DD0B0F5005F1CD0B0F1101F06D13EE088
:1026C000102A3CD0202A3AD0502A38D0012584F84C
:1026D0003D60002084F83C00284670BDCB68D1E9FD
:1026E0000121206801F019FB2068816841F0770121
:1026F00009E0CB68D1E90121206801F00EFB2068D8
:10270000816841F480418160E1E7CA6849682068D6
:1027100001F0AEFC5021206806E0CA6849682068D4
:1027200001F0B7FC6021206801F002FBCFE7CA6826
:102730004968206801F09CFC40212068F4E7226889
:1027400001461046F0E7000088FFCEFF2000100091
:1027500010B586B0044614216846FDF72BFF2068AB
:10276000B0F1804F15D10C48C16C41F00101C1643A
:10277000C06C694600F001000590022000900190B5
:10278000002002900390012004904FF09040FEF74B
:10279000F3FF06B010BD00000010024070B5044603
:1027A00090F83C0000260D4601280BD0012084F84B
:1027B0003C000C2A4AD007DC82B1042A20D0082A27
:1027C00006D131E0022070BD102A53D0142A63D004
:1027D0000126002084F83C00304670BD206801F0DE
:1027E000B1FA2068816941F008018161206881693E
:1027F00021F004018161206881692A69114311E097
:10280000206801F0EDFA2068816941F4006181617E
:102810002068816921F480618161206881692A6969
:1028200041EA02218161D4E7206801F021FB2068A0
:10283000C16941F00801C1612068C16921F004014A
:10284000C1612068C1692A69114311E0206801F063
:1028500057FB2068C16941F40061C1612068C1690A
:1028600021F48061C1612068C1692A6941EA0221BD
:10287000C161AEE7206801F08BFB2068016D41F07B
:10288000080101652068016D21F0040101652068DF
:10289000016D2A69114311E0206801F0B1FB206845
:1028A000016D41F4006101652068016D21F48061D2
:1028B00001652068016D2A6941EA0221016588E706
:1028C00010B5040003D094F83D0010B107E00120DA
:1028D00010BD002084F83C00204600F022F80220C1
:1028E00084F83D00211D206801F0B2F9012084F830
:1028F000480084F83E0084F83F0084F8400084F8E3
:10290000410084F8420084F8430084F8440084F8CD
:10291000450084F8460084F8470084F83D00002014
:1029200010BD704730B50446022269B1042912D0A7
:10293000082917D00C291CD0102921D094F8430065
:10294000012824D0012030BD94F83E000128F9D19F
:1029500084F83E201DE094F83F000128F2D184F86D
:102960003F2016E094F840000128EBD184F8402085
:102970000FE094F841000128E4D184F8412008E0F8
:1029800094F842000128DDD184F8422001E084F867
:1029900043200122206801F0B3F9194B206819493E
:1029A000194A984209D0884207D0904205D0174D65
:1029B000A84202D0164DA84203D1456C45F400450B
:1029C0004564206898420CD0B0F1804F09D0114B7B
:1029D000984206D0104B984203D0884201D09042D2
:1029E00007D181680D4A1140062906D0B1F5803F14
:1029F00003D0016841F001010160002030BD0000FA
:102A0000002C0140003401400040014000440140DE
:102A10000048014000040040000800400700010099
:102A200090F88010012918D0012180F8801024210D
:102A3000C0F8841050F8641B0A680B6823F0010387
:102A40000B6022F000510022026050F8643C1960D3
:102A500020210162027710467047022070477047BC
:102A6000704770B5044690F8800001281DD0012001
:102A700084F880002420C4F8840020680568026877
:102A800022F0010202602068826822F060620A433C
:102A90008260204601F010FB206805602020C4F809
:102AA0008400002084F8800070BD022070BD70B5E5
:102AB000044690F8800001281DD0012084F8800091
:102AC0002420C4F8840020680568026822F001020E
:102AD00002602068826822F060420A4382602046D9
:102AE00001F0EAFA206805602020C4F88400002084
:102AF00084F8800070BD022070BD70477047704739
:102B00002DE9F04103680446D86919689A6840F6CF
:102B10000F0528424FF0000509D186067ED501F049
:102B2000200602F080573E4378D0216F27E1A94E5E
:102B3000A94F16400F40374370D0C70709D0CF05C3
:102B400007D501271F62D4F88C3043F00103C4F885
:102B50008C3083070AD5D30708D0276802233B624D
:102B6000D4F88C3043F00403C4F88C3043070AD502
:102B7000D30708D0276804233B62D4F88C3043F095
:102B80000203C4F88C3003070CD501F02003334353
:102B900008D0266808233362D4F88C3043F0080349
:102BA000C4F88C3003050BD54B0109D526684FF4CA
:102BB00000633362D4F88C3043F02003C4F88C30C7
:102BC000D4F88C30002B3AD0800609D501F02000D3
:102BD00002F08051084303D0216F09B12046884795
:102BE000D4F88C0021688968490602D410F0280FB7
:102BF00027D0204601F020FB2068806840061BD5C6
:102C00002068083050E8001F21F0400140E8001221
:102C1000002AF5D1E06F78B1704900E017E08163D8
:102C2000E06FFEF75AFD002809D0E06F816B00E0ED
:102C30002046BDE8F04108472046FFF760FFBDE8A9
:102C4000F0812046FFF75BFFC4F88C50F7E7E76E92
:102C50002026012F7ED1C7067CD5CF067AD510203D
:102C6000186220688068400642D5E16F08684068B5
:102C70000004000CE3D0B4F85C208242DFD9A4F851
:102C80005E000868006880062BD4206850E8001FAA
:102C900021F4807140E80012002AF6D12068083043
:102CA00050E8001F21F0010140E80012002AF5D190
:102CB0002068083050E8001F21F0400140E8001271
:102CC000002AF5D1C4F88860E566216851E8000F54
:102CD00020F0100041E80002002AF6D1E06FFEF774
:102CE000C7FCB4F85C00B4F85E10401A81B22CE066
:102CF000B4F85C00B4F85E10401A81B2B4F85E001B
:102D000000289CD000299AD0226852E8000F20F4B5
:102D1000907042E80003002BF6D12E4BDB43206875
:102D2000083050E8002F1A4040E80027002FF6D165
:102D3000C4F88860E5662567226852E8000F20F035
:102D4000100042E80003002BF6D12046FFF787FE73
:102D500075E7FFE7C70209D5570207D54FF4801082
:102D600018622046BDE8F041FFF7C8BE03060AD549
:102D700001F0800302F40002134304D0616F0029C4
:102D80007FF456AF5BE7420611D54A060FD52046C1
:102D9000016851E8002F22F0400241E80023002B97
:102DA000F6D1C0F88460456700F05AF947E702029F
:102DB00006D54A0004D52046BDE8F041FFF79DBE88
:102DC000C001C5D50029C3DA2046BDE8F041FFF7B0
:102DD00047BE000001000010200100042542000849
:102DE00010B5040003D0D4F8840010B107E001202E
:102DF00010BD002084F88000204600F027F8242031
:102E0000C4F884002068016821F0010101602046B7
:102E100001F054FC0128EBD0A06A10B1204601F06B
:102E20006DF92068416821F4904141602068816813
:102E300021F02A0181602068016841F001010160F0
:102E40002046BDE8104001F0BDB9000010B598B0B3
:102E50000446142111A8FDF7ADFB44216846FDF797
:102E6000A9FB1B492068884230D101200024CDE90C
:102E700000046846FEF7B4FE08B1FEF7F7FB1548FC
:102E8000016E41F480410166016E01F480411691AA
:102E9000C16C41F00101C164C06C11A900F00100D6
:102EA00016904FF4C06011900220CDE91204072063
:102EB000CDE914404FF09040FEF75EFC0022114631
:102EC0002520FEF7F5FD2520FEF7E4FD18B010BD26
:102ED000003801400010024030B4D0F88830202B78
:102EE00020D1E1B1DAB190F88030012B1AD0012362
:102EF00080F880300023C3660B4C0368A3420BD0DC
:102F00005B681B0208D5046854E8003F43F0806307
:102F100044E80035002DF6D130BC01F009BD012098
:102F200030BC70470220FBE70080004070B5164EB1
:102F300088B0706802F082FB04460D46306802F0EB
:102F40007DFB41EC100B11A153EC102B02A8CDE935
:102F50000045FDF739FA11A1A6F13000FDF752FB4B
:102F600048B902A8FDF707FB82B24FF47A7302A9B1
:102F70000B4800F017F80449012230390848FFF7E0
:102F8000ABFF08B070BD000030000020583A252E7D
:102F900031662C593A252E31660000003F000000B2
:102FA000B80000202DE9F8430446D0F884001F46FD
:102FB00016460D46202851D1DDB1D6B194F88000D7
:102FC00001284BD0012084F880004FF00008C4F89D
:102FD0008C802120C4F884001834FEF703FDA687F6
:102FE0008146E68754F8100C183CB0F5805F03D09A
:102FF00004E00120BDE8F883206920B12E460025B9
:1030000084F8808010E00026FAE78021204601F055
:103010001BFDB8B9C6B116F8010B21688862B4F877
:103020005600401EA4F85600B4F856004B464FF028
:10303000000200970028E8D14FF04001204601F03F
:1030400003FD30B10320D5E735F8020BC0F30800CB
:10305000E3E72020C4F884000020CBE70220C9E782
:103060007047FEE700B585B014216846FDF7A2FA67
:10307000C020009001200190029002200390694638
:103080000248FEF779FB05B000BD000000040048CF
:1030900070B50824002500F023FD13E06806050E36
:1030A000002000F005FD142001F068FD142001F05F
:1030B00065FD012000F0FCFC142001F05FFD00F034
:1030C00003FD0543641EE4B2E8D2002000F0F0FCEA
:1030D000142001F053FD00F025FD284670BD70B5A9
:1030E0000446082516E000F0E3FC142001F046FD3C
:1030F00004F0800000F00AFD142001F03FFD60069E
:10310000040E142001F03AFD012000F0D1FC14203F
:1031100001F034FD6D1EEDB24FF00000E3D200F07F
:10312000C7FCBDE87040142001F028BD10B5012097
:1031300000F0ECFC142001F021FD012000F0B8FCAF
:10314000142001F01BFD002000F0E0FC142001F031
:1031500015FD002000F0ACFCBDE81040142001F08B
:103160000DBD10B5002000F0A3FC142001F006FDF9
:10317000002000F0CBFC142001F000FD012000F045
:1031800097FC142001F0FAFC012000F0BFFCBDE820
:103190001040142001F0F2BC10B5052400F0A0FC92
:1031A000142001F0EBFC012000F082FC142001F05F
:1031B000E5FC05E0641EA4B2142001F0DFFC6CB154
:1031C00000F082FC0028F5D100F0ACFC002000F0FB
:1031D0006FFC142001F0D2FC002010BD00F0A2FC16
:1031E000FFF7BFFF012010BD00B585B01421684670
:1031F000FDF7E0F94FF6FF70009000200321CDE9C4
:103200000201019069460248FEF7B6FA05B000BD1A
:103210000008004800B585B014216846FDF7CAF9DA
:103220004FF6FF70009001200190032003900020D2
:10323000029069460248FEF79FFA05B000BD000003
:103240000008004830B587B014216846FDF7B2F990
:103250001E48C16C41F00401C164C16C01F004015D
:103260000591C16C41F00101C164C16C01F0010123
:103270000591C16C41F00201C164C06C012500F0F0
:10328000020005904FF44870CDE900050024039436
:10329000694602940E48FEF76FFA280203940090E4
:1032A000CDE901544FF0904469462046FEF764FA98
:1032B000FFF7B0FFA06940F48070A06104481830A7
:1032C000016841F40871016007B030BD0010024090
:1032D00000040048203AD2B2034B02EB420203EB57
:1032E000021200F019B8000036570008F0B50E467B
:1032F0000746002540F23F1407E021463846FFF715
:10330000E9FF103C6D1CA4B2761C3278002A01D073
:10331000142DF2D3F0BD00002DE9F04791468A4606
:103320000026044600F086F8DFF84080012700BF41
:1033300000F0C0F85FF0000539F8160007FA05F153
:103340000842404601D1408800E0008800F086F83D
:103350006D1C102DF0D3641CE4B25146204600F0E1
:1033600069F8761C182EE3D3BDE8F08754000020DE
:1033700010B5FFF767FF002000F014F8084CA0809C
:10338000A088A0F50241303906D000F08FFA002065
:1033900000F008F8A08010BD00F0FFF9F7E700008A
:1033A0005400002070B51D490A6842F400720A609A
:1033B0000A6842F480720A60184C103C226842F09D
:1033C00020022260164A1060086840F02000086061
:1033D00000BF00BF00BF206840F0200020602068D0
:1033E00040F480702060FFF7FFFE4FF09041886A44
:1033F00040F48070886200BF00BF00BF0848001F13
:10340000006885B2886940F480708861FFF702FF28
:10341000206840F400702060284670BD28040048F1
:103420001408004801B5BDF800000149488008BDF6
:103430005400002010B50C460146202000F068F82A
:103440002146BDE81040212000F062B801B5BDF86A
:1034500000000149088008BD54000020134A11688B
:1034600041F400711160114910390B6843F4807305
:103470000B600B6843F020030B600D4B1860106865
:1034800040F02000106000BF00BF00BF086840F09F
:1034900020000860086840F48070086000BF00BF2A
:1034A00000BF086840F400700860704728040048B6
:1034B000140800481449086840F40070086008685F
:1034C00040F48070086010481038026842F0200212
:1034D00002600E4B22221A600A6842F020020A6043
:1034E00000BF00BF00BF016841F02001016001681A
:1034F00041F48071016000BF00BF00BF016841F46A
:10350000007101607047000028040048140800485A
:10351000184B10B51A6842F400721A601A6842F427
:1035200080721A60134A103A146844F02004146040
:10353000114C2060186840F02000186000BF00BFE8
:1035400000BF106840F020001060106840F48070E8
:1035500010602160186840F02000186000BF00BFB4
:1035600000BF106840F020001060106840F48070C8
:10357000106010BD28040048140800482DE9F04FE1
:1035800087B014216846FDF715F83F48C16C41F03B
:103590000401C164C16C01F004010591C16C41F0EA
:1035A0002001C164C16C01F020010591C16C41F0A2
:1035B0000101C164C16C01F001010591C16C41F0D0
:1035C0000201C164C16C01F002010591C16C41F0BE
:1035D0000801C164C06CDFF8B48000F008004FF649
:1035E000FF740590002221464046FEF7F6F94FF49D
:1035F00080764FF09049002231464846FEF7EDF9BB
:10360000DFF88CA0002204215046FEF7E6F9DFF82F
:1036100084B04FF44077002239465846FEF7DDF972
:103620000125CDE9004500240294694640460394F3
:10363000FEF7A2F8CDE90054694648460295FEF728
:103640009BF807208DE8310069465846FEF794F84C
:103650000096CDE90154694648460394FEF78CF87C
:1036600004200090CDE90154694650460394FEF7CA
:1036700083F80097CDE90154694658460394FEF754
:103680007BF807B0BDE8F08F00100240000800484A
:10369000000C00480004004810B58EB000240794C8
:1036A000089409940A940B940C941C2168460D9478
:1036B000FCF780FF1D484FF0804101603F21C0E9C9
:1036C000011440F2F311C0E903148461FEF77CFF9A
:1036D00008B172B6FEE74FF48050079007A913486F
:1036E000FEF7B6FF08B172B6FEE71048FFF7E8F83C
:1036F00008B172B6FEE70B940BA90C480D94FEF7C7
:1037000015FF08B172B6FEE76020CDE9000402940F
:103710000422694605480494FFF740F808B172B6E0
:10372000FEE70248FFF714F80EB010BD6C00002051
:10373000174810B5154901604FF41651416000213A
:1037400081600C22C160C0E904128161C161016223
:1037500041628162FFF744FB08B172B6FEE70021C7
:103760000B48FFF7A4F908B172B6FEE7002108483C
:10377000FFF777F908B172B6FEE70548FFF750F991
:10378000002801D072B6FEE710BD000000380140ED
:10379000B8000020FEE7FEE7704730B501210020A9
:1037A000FFF7B6FE4FF47A70FDF7E0FE002101202E
:1037B000FFF7AEFE41F290711020FFF7A9FE4FF423
:1037C0001C516020FFF7A4FE01216120FFF7A0FE3D
:1037D00002214620FFF79CFE48F210011320FFF75C
:1037E00097FE48F2FE011220FFF792FE4FF4A0610F
:1037F0000220FFF78DFE41F230010320FFF788FE23
:1038000040F2033421463020FFF782FE214631206A
:10381000FFF77EFE21463220FFF77AFEE51E29469D
:103820003320FFF775FE03213420FFF771FE214698
:103830003520FFF76DFE14213620FFF769FE214683
:103840003720FFF765FE21463820FFF761FE21464D
:103850003920FFF75DFE29463A20FFF759FE032184
:103860003B20FFF755FE21463C20FFF751FE4FF469
:10387000A0513D20FFF74CFE4FF400719220FFF75E
:1038800047FE21469320FFF743FE40F60D019020AE
:10389000FFF73EFE41F218010320FFF739FEBDE8B5
:1038A000304040F273110720FFF732BE10B543F2EB
:1038B0000801E320FFF72CFE1221E720FFF728FE86
:1038C00041F23121EF20FFF723FE00210120FFF715
:1038D0001FFE4FF4E0610220FFF71AFE41F23001B3
:1038E0000320FFF715FE00210420FFF711FE40F230
:1038F00007210820FFF70CFE00210920FFF708FE32
:1039000000210A20FFF704FE00210C20FFF700FE33
:1039100000210D20FFF7FCFD00210F20FFF7F8FD2F
:1039200000211020FFF7F4FD07211120FFF7F0FD23
:1039300000211220FFF7ECFD00211320FFF7E8FD26
:10394000C820FDF707FF41F290611020FFF7E0FD6E
:1039500040F227211120FFF7DBFD3220FDF7FAFEB0
:103960001D211220FFF7D4FD3220FDF7F3FE4FF4A6
:1039700000611320FFF7CCFD14212920FFF7C8FDBB
:103980000B212B20FFF7C4FD3220FDF7E3FE0021C1
:103990002020FFF7BDFD00212120FFF7B9FD072101
:1039A0003020FFF7B5FD40F207713120FFF7B0FD81
:1039B00006213220FFF7ACFD40F204713520FFF7FD
:1039C000A7FD41F604713620FFF7A2FD0421372040
:1039D000FFF79EFD00213820FFF79AFD40F20671A7
:1039E0003920FFF795FD40F201713C20FFF790FD73
:1039F0000F213D20FFF78CFD00215020FFF788FDAF
:103A0000EF215120FFF784FD00215220FFF780FDB8
:103A100040F23F115320FFF77BFD4FF41C51602013
:103A2000FFF776FD01216120FFF772FD00216A207A
:103A3000FFF76EFD00218020FFF76AFD0021812045
:103A4000FFF766FD00218220FFF762FD0021832041
:103A5000FFF75EFD00218420FFF75AFD002185203D
:103A6000FFF756FD10219020FFF752FD0021922014
:103A7000FFF74EFD03219320FFF74AFD4FF48871B5
:103A80009520FFF745FD00219720FFF741FD00211C
:103A90009820FFF73DFD41F218010320FFF738FDA4
:103AA000BDE8104040F273110720FFF731BD000060
:103AB00008B1044801E003481030016841F04001BA
:103AC000016070471804004810B580210348FDF7D5
:103AD00077FF012800D0002010BD0000000400483E
:103AE00000B585B014216846FCF764FD8020009085
:103AF00000200190012002900220039069460248B4
:103B0000FDF73AFE05B000BD0004004808B10448C6
:103B100001E003481030016841F080010160704706
:103B20001804004800B585B014216846FCF742FD32
:103B3000802000901120019000200290022003902C
:103B400069460248FDF718FE05B000BD00040048B4
:103B50007047000010B5FDF74BFF174C17490020C8
:103B6000226841F28833012A0FD00860144C1549AD
:103B70002268012A10D008601349144B0A681449BE
:103B8000012A10D00860186010BD0A68521C0A6033
:103B90009A42EBDB2060E9E70A68521C0A609A420D
:103BA000EADB2060E8E70A68521C0A60642AEBD16D
:103BB00001221A60086010BD0800002048000020A3
:103BC0000C0000204C0000201000002014000020F9
:103BD0005000002000B593B038216846FCF7EAFC9D
:103BE00014210EA8FCF7E6FC4FF40070FDF792FFDD
:103BF0000220C1010391402104910121CDE9080176
:103C000000900821CDE90A1007900C900D906846AD
:103C1000FEF772FA08B172B6FEE70F200E9003208D
:103C20000F90002010901190129001210EA8FEF725
:103C30001BF9002801D072B6FEE713B000BD0000EA
:103C40000248016841F470010160704788ED00E0AE
:103C50002DE9F0430268234B234D244E244C4FF0B2
:103C60008049984207D0484505D0A84203D0B042C9
:103C700001D0A04203D122F070074A683A431D4F99
:103C8000DFF874C0DFF8748098420DD048450BD03F
:103C9000A84209D0B04207D0A04205D0B84203D014
:103CA000604501D0404503D122F44075CA682A43DB
:103CB0004D6922F080022A4302608A68C2620A6863
:103CC0008262984207D0A04205D0B84203D0604536
:103CD00001D0404501D10969016301214161BDE87D
:103CE000F0830000002C0140000400400008004068
:103CF00000340140004001400044014000480140C0
:103D000010B501F01F030121046A99408C4304623D
:103D1000016A9A401143016210BD10B5846842EAFD
:103D2000032224F47F440A432243826010BD000032
:103D30008268034B1A400A4342F0070181607047D2
:103D40008FFFCFFF2DE9F043026A22F001020262E9
:103D5000056A436882691C4C25F0020522400C6804
:103D600022F0030214438A68194E2A43174D194F53
:103D7000DFF864C0DFF86490A84207D0B04205D0F5
:103D8000B84203D0604501D0484506D122F008086A
:103D9000CA6842EA080222F00402A84207D0B042F0
:103DA00005D0B84203D0604501D0484505D14D69E2
:103DB00023F440731D438B692B434360846149683E
:103DC00041630262BDE8F0838FFFFEFF002C0140DB
:103DD00000340140004001400044014000480140DF
:103DE000F0B5026A22F010020262056A4268836935
:103DF000194C1B4E23400C6823F4407343EA0424FF
:103E000025F020038D6843EA0513144DA84201D024
:103E1000B04206D1CF6823F0800343EA071323F0B2
:103E20004003A8420AD0B04208D00E4DA84205D0A7
:103E30000D4DA84202D00D4DA84207D14D6922F484
:103E4000406242EA85028D6942EA850242608461ED
:103E5000496881630362F0BDFF8FFFFE002C0140C3
:103E6000003401400040014000440140004801404E
:103E7000F0B5026A22F480720262056A4368C26980
:103E8000194C1B4E22400C6822F00302144325F407
:103E900000728D6842EA0522144DA84201D0B0425A
:103EA00006D1CF6822F4006242EA072222F480623F
:103EB000A8420AD0B04208D00E4DA84205D00E4DFF
:103EC000A84202D00D4DA84207D14D6923F44053BA
:103ED00043EA05138D6943EA05134360C4614968E9
:103EE000C1630262F0BD00008FFFFEFF002C0140A5
:103EF00000340140004001400044014000480140BE
:103F0000F0B5026A22F480520262056A4268C3690F
:103F1000194C1B4E23400C6823F4407343EA0424DD
:103F200025F400538D6843EA0533144DA84201D0AF
:103F3000B04206D1CF6823F4004343EA073323F4A9
:103F40008043A8420AD0B04208D00E4DA84205D006
:103F50000D4DA84202D00D4DA84207D14D6922F463
:103F6000404242EA85128D6942EA85124260C4618C
:103F7000496801640362F0BDFF8FFFFE002C014021
:103F8000003401400040014000440140004801402D
:103F900030B5026A22F480320262046A4268036D1C
:103FA000114D2B400D681D4324F400330C8943EA66
:103FB00004430E4CA0420BD00D4CA04208D00D4C37
:103FC000A04205D00C4CA04202D00C4CA04204D11F
:103FD0004C6922F4803242EA042242600565496855
:103FE0008164036230BD00008FFFFEFF002C0140A2
:103FF00000340140004001400044014000480140BD
:1040000030B5026A22F480120262046A4268036DCB
:10401000114D24F400142B400D6843EA05230D894B
:1040200044EA05540D4DA8420BD00D4DA84208D0CE
:104030000C4DA84205D00C4DA84202D00B4DA84211
:1040400004D14D6922F4802242EA85224260036550
:104050004968C164046230BDFF8FFFFE002C01403F
:10406000003401400040014000440140004801404C
:1040700010B5036A046A24F001040462846924F020
:10408000F00444EA021423F00A020A438461026243
:1040900010BD10B5036A23F0100303628369046A3C
:1040A00023F4704343EA023224F0A00343EA0111EF
:1040B0008261016210BD000030B5416EB9B1026885
:1040C00091689268C1F342610B4B520F9C5CE50012
:1040D00003F10804A25CB5FBF2F2A0F86A205A5C76
:1040E000615CD200B2FBF1F1A0F8681030BD012193
:1040F000A0F86A10F8E700001E69000890F8281080
:10410000C90706D001684A68C36A22F400321A431C
:104110004A6090F82810890706D501684A68036B41
:1041200022F480321A434A6090F82810490706D5D5
:1041300001684A68436B22F480221A434A6090F86F
:104140002810090706D501684A68836B22F40042EB
:104150001A434A6090F82810C90606D501688A6893
:10416000C36B22F480521A438A6090F828108906A3
:1041700006D501688A68036C22F400521A438A60EB
:1041800090F82810490611D501684A68436C22F45A
:1041900080121A434A60416CB1F5801F06D1016854
:1041A0004A68836C22F4C0021A434A6090F82810CF
:1041B000090606D501684A68C06C22F40022024351
:1041C0004A607047F8B500260446C0F88C60FDF7D9
:1041D00009FC0546206800686FF07E47000708D597
:1041E0002B4600224FF400112046009700F02CFCD3
:1041F00060B92068006840070AD52B4600224FF4BA
:1042000080012046009700F01FFC08B10320F8BD94
:104210002020C4F88400C4F8880044F86C6F0020A3
:104220002675F8BD10B5806A0021A0F85E10A0F8D0
:104230005610FEF764FC10BD10B5026852E8001F6E
:1042400021F4907142E80013002BF6D10E4B026866
:10425000083252E8001F194042E80014002CF6D141
:10426000C16E012908D1016851E8002F22F0100227
:1042700041E80023002BF6D12021C0F8881000214E
:10428000C166016710BD0000FEFFFFEF10B5B0F87A
:104290006020D0F888300168222B04D0886940F073
:1042A0000800886110BD496A836D11401980816DD5
:1042B000891C8165B0F85E10491EA0F85E10B0F848
:1042C0005E100029EED1026852E8001F21F49071BF
:1042D00042E80013002BF6D10168083151E8002FA5
:1042E00022F0010241E80023002BF5D12021C0F883
:1042F000881000210167C26E012A02D0FEF716FE67
:1043000010BDC166026852E8001F21F0100142E8AA
:104310000013002BF6D10168CA69D243D20601D43A
:1043200010220A62B0F85C10FEF799FB10BD000085
:104330002DE9F0470446B0F860600068C569D0F820
:1043400000A0D0F80880D4F88810222905D081690F
:1043500041F008018161BDE8F087B4F868704FF062
:10436000000963E02068406AA16D30400880A06DBC
:10437000801CA065B4F85E00401EA4F85E002068B2
:10438000C569690730D0E9070AD05FEACA5107D585
:1043900001210162D4F88C0040F00100C4F88C00C7
:1043A000A8070BD55FEAC87008D021680220086210
:1043B000D4F88C0040F00400C4F88C0068070BD5DA
:1043C0005FEAC87008D0216804200862D4F88C0025
:1043D00040F00200C4F88C00D4F88C0020B12046D4
:1043E000FEF78DFBC4F88C90B4F85E00F0B921683C
:1043F00051E8000F20F4807041E80002002AF6D155
:10440000264A2068083050E8001F114040E8001399
:10441000002BF6D12020C4F88800C4F87090E16E1B
:104420004846012923D02046FEF780FD0FB1A8069B
:1044300098D4B4F85E0000288DD0B4F8681081429A
:1044400089D92068083050E8001F21F0805140E8E9
:104450000012002AF5D112482067206850E8001F9A
:1044600041F0200140E80012002AF6D173E7E0662F
:10447000216851E8000F20F0100041E80002002AF6
:10448000F6D12068C169C943C90601D4102101626F
:10449000B4F85C102046FEF7E2FAC7E7FEFFFFEF34
:1044A0008D42000810B5B0F86020D0F8883001685F
:1044B000222B04D0886940F00800886110BD496A49
:1044C0001140826D1170816D491C8165B0F85E10DC
:1044D000491EA0F85E10B0F85E100029EED1026807
:1044E00052E8001F21F4907142E80013002BF6D12E
:1044F0000168083151E8002F22F0010241E8002351
:10450000002BF5D12021C0F8881000210167C26E70
:10451000012A02D0FEF70AFD10BDC166026852E80A
:10452000001F21F0100142E80013002BF6D10168B2
:10453000CA69D243D20601D410220A62B0F85C10D4
:10454000FEF78DFA10BD00002DE9F0470446B0F8E3
:1045500060600068C569D0F800A0D0F80880D4F881
:104560008810222905D0816941F008018161BDE8E8
:10457000F087B4F868704FF0000963E02068406A83
:10458000A16D30400870A06D401CA065B4F85E00BD
:10459000401EA4F85E002068C569690730D0E907AD
:1045A0000AD05FEACA5107D501210162D4F88C0014
:1045B00040F00100C4F88C00A8070BD55FEAC87072
:1045C00008D0216802200862D4F88C0040F0040072
:1045D000C4F88C0068070BD55FEAC87008D0216862
:1045E00004200862D4F88C0040F00200C4F88C006B
:1045F000D4F88C0020B12046FEF781FAC4F88C90E4
:10460000B4F85E00F0B9216851E8000F20F4807022
:1046100041E80002002AF6D1264A2068083050E816
:10462000001F114040E80013002BF6D12020C4F8F1
:104630008800C4F87090E16E4846012923D02046D6
:10464000FEF774FC0FB1A80698D4B4F85E000028F9
:104650008DD0B4F86810814289D92068083050E8BC
:10466000001F21F0805140E80012002AF5D11248C5
:104670002067216851E8000F40F0200041E8000267
:10468000002AF6D173E7E066216851E8000F20F0B8
:10469000100041E80002002AF6D12068C169C94330
:1046A000C90601D410210162B4F85C102046FEF75F
:1046B000D6F9C7E7FEFFFFEFA54400082DE9F0415A
:1046C0000446016880682269E36910436269002535
:1046D0001A431043DFF82CC20A688B4B1A4002437E
:1046E0000A6020684168E26821F44051114341604A
:1046F0002168A069614501D0226A10438A68834B12
:104700001A4002438A602068C16A626A21F00F0180
:104710001143C1627E4923687E488B420DD1D0F897
:10472000880010F0030006D0012855D0022842D09E
:1047300003283FD152E001203DE077498B420BD165
:10474000D0F8880010F00C0035D0042833D00828A9
:1047500040D00C282ED141E070498B420BD1D0F8CB
:10476000880010F0300026D0102835D0202831D015
:1047700030281FD132E06A498B420BD1D0F8880033
:1047800010F0C00017D0402826D0802822D0C028A2
:1047900010D123E063450DD1D0F8880010F44060BB
:1047A00009D0B0F5806F17D0B0F5006F12D0B0F51A
:1047B000406F13D010205B495B4F00264FF400423E
:1047C00063453BD160B1022813D004280BD00828E0
:1047D00072D10DE00220EEE70420ECE70820EAE7C2
:1047E000FDF730FC01E0FDF751FC010001D17CE058
:1047F0001146606A37F810206768B1FBF2F007EBEA
:104800004703834270D8B0EB073F6DD800230846BA
:104810001946FBF761FD090241EA106102027808BE
:10482000101871413A460023FBF756FD3F4AA0F5A8
:104830004071914258D82168C86056E0E3694FF64C
:10484000EF7893422CD109284ED2DFE800F005081A
:10485000114D0D4D4D4D1000FDF7F4FB01E0FDF73E
:1048600003FC010004D140E0FDF710FCF9E711461C
:10487000606A37F81000B1FBF0F04100606801EBAE
:104880005001B1FBF0F0A0F1100141452CD84FF6DA
:10489000F0710140C0F3420001432068C16024E090
:1048A000092821D2DFE800F0050912200E2020207F
:1048B0001100FDF7C7FB02E016E0FDF7D5FB010094
:1048C00004D112E0FDF7E2FBF9E71146606A37F820
:1048D0001000B1FBF0F1606801EB5001B1FBF0F0AA
:1048E000A0F1100141450AD901250120A4F86A0070
:1048F00024F8680F2846A660E660BDE8F08180B223
:1049000099E7000000800040F369FFCFFFF4FF113A
:1049100000380140001002400044004000480040C0
:10492000004C00400024F40006690008FFFC0F0062
:1049300070B58165A0F85C20A0F85E2000210167B9
:1049400083684FF48055FF24AB4204D10369FBB95F
:1049500040F2FF1322E07F26C3B1B3F1805F1AD08B
:10496000A0F86010C0F88C102223C0F888300368CB
:10497000083353E8004F44F0010443E80046002E9A
:10498000F5D1436EB3F1005F0ED032E0036943B955
:10499000A0F86040E6E703691BB13F23A0F8603050
:1049A000E0E7A0F86060DDE7B0F86830934220D817
:1049B0008268AA4201D10269CAB11F4A026780F81F
:1049C0008010016941B1026852E8001F41F4807112
:1049D00042E80013002BF6D10168083151E8002F9E
:1049E00042F0805241E80023002BF5D121E0134A28
:1049F000E4E78268AA4201D102697AB1104A0267EB
:104A000080F88010016959B1026852E8001F41F432
:104A1000907142E80013002BF6D10AE0094AEEE754
:104A2000026852E8001F41F0200142E80013002B09
:104A3000F6D1002070BD0000494500083143000850
:104A4000A54400088D4200082DE9F0479A46174614
:104A50000E4604464FF000094FF02008089D4AE03A
:104A6000681C48D0FCF7BEFFA0EB0A00A8422AD879
:104A70004DB32068016849073DD5C069C0430005B2
:104A800039D421684FF400600862206850E8001FA4
:104A900021F4D07140E80012002AF6D120680830D5
:104AA00050E8001F21F0010140E80012002AF5D172
:104AB00044F8848FC4F80480C4F8088004F8049C87
:104AC0000320BDE8F087216851E8000F20F4D07082
:104AD00041E80002002AF6D12068083050E8001FA3
:104AE00021F0010140E80012002AF5D144F8848F3A
:104AF000C4F80480E2E72068C06936EA000004D008
:104B00000020B842ACD00020DBE70120F9E700002C
:104B10000148FDF7F5BF0000B8000020FEE703B430
:104B200001984100009850EAC12018BF04204A0DA6
:104B300018BF40F0010040F2FF72B2EB515F08BFB6
:104B400040F00200012808BF052002B070470907A5
:104B5000090E002804DB00F1E02080F80014704703
:104B600000F00F0000F1E02080F8141D704730388D
:104B70000A2801D20120704700207047002100E080
:104B8000491C8142FCD370470B494868401C48606F
:104B9000022802DD0020486001E000280BD1064A0F
:104BA0000020383202F1080152F8203041F820305C
:104BB000401C0228F8DB7047000000201F4910B598
:104BC000496871B101291DD002291AD11B49383118
:104BD00051F82020521C41F82020BDE81040FCF77D
:104BE00033BD164A403252F82010002909D0A2F1F4
:104BF000180353F82040641C43F82040491E42F833
:104C0000201010BD0D49303101EB80042068B0F157
:104C1000804F04DDB7EE000A84ED000A0AE000F0E0
:104C20000DFD9FED071B53EC112B00F021FB00F055
:104C3000EDFA2060BDE81040FCF7E0BC0000002069
:104C40009A9999999999B93F70B5234C88B004F114
:104C500008002668D0ED000A00EE106A656890ED45
:104C6000011AB8EEC00A20EE200A00EE905AF8EEC3
:104C7000E00A00EE810A10EE100A00F0DFFCCDE938
:104C800000012B46324615A102A8FBF79DFB002030
:104C90004FEA000144F82010401C0228FADB0E49BC
:104CA00000201831A1F1080251F8203042F82030DC
:104CB000401C0228F8DB0849012028398860C860B8
:104CC00002A8FBF758FC82B24FF47A7302A9084895
:104CD000FEF768F908B070BD28000020583A256436
:104CE0002C593A25642C5A3A252E316600000000D2
:104CF000B800002010B500F01FF801280DD00228E0
:104D00000FD003280FD0042812D10A484068002889
:104D10000ED1BDE81040FFF797BFBDE81040FFF788
:104D200033BF002000E00120BDE81040FFF746BF80
:104D300010BD00000000002070B52B4C0121204662
:104D4000FCF73EFE294D4FF0904670B102212046FF
:104D5000FCF736FE48B104212046FCF731FE20B1B5
:104D600001213046FCF72CFE18BB686A08B30A2004
:104D7000FCF7F0FC0020686201212046FCF720FED1
:104D800078B102212046FCF71BFE60B104212046C9
:104D9000FCF716FE48B101213046FCF711FE30B198
:104DA00020E0012070BD022070BD032070BD0420F2
:104DB00070BD01212046FCF703FE012812D102211B
:104DC0002046FCF7FDFD01280CD104212046FCF70C
:104DD000F7FD012806D101213046FCF7F1FD01283D
:104DE00000D16862002070BD00040048000000206F
:104DF00010B50FA10020FEF779FA0DA13020FEF7C3
:104E000075FA0BA17820FEF771FA09A19020FEF740
:104E10006DFA07A1A820FEF769FA05A1C020FEF7E8
:104E200065FABDE8104002A1D820FEF75FBA000085
:104E30002020202020202020202020202020202072
:104E4000202020200000000010B50D4C206A18B171
:104E5000FFF7CEFF00202062606838B1012809D03A
:104E600002280BD1BDE8104000F05AB8BDE8104050
:104E700000F098B8BDE8104000F004B810BD000084
:104E80000000002010B5134C8CB0206800F0D6FB59
:104E900041EC100B10A153EC102B6846FBF794FA71
:104EA000606800F0CBFB41EC100B11A153EC102B10
:104EB00006A8FBF789FA14A11820FEF717FA69462D
:104EC0004820FEF713FA06A96020FEF70FFA0CB08F
:104ED00010BD0000300000202020202020583A255E
:104EE0002E3166202020202020202020202000009D
:104EF0002020202020593A252E31662020202020F5
:104F000020202020202000002020202020202020E1
:104F1000505249434520202020202020000000003E
:104F200010B50D4C8CB00DA168462268FBF74CFA09
:104F300010A106A86268FBF747FA14A11820FEF733
:104F4000D5F969464820FEF7D1F906A96020FEF799
:104F5000CDF90CB010BD000038000020202020202A
:104F600020583A25642020202020202020202020A6
:104F7000000000002020202020593A256420202015
:104F800020202020202020200000000020202020A1
:104F9000202020205245502020202020202020208A
:104FA0000000000010B50D4C8CB00DA168462268C1
:104FB000FBF70AFA10A106A86268FBF705FA14A12C
:104FC0001820FEF793F969464820FEF78FF906A9E5
:104FD0006020FEF78BF90CB010BD00002800002007
:104FE0002020202020583A25642020202020202026
:104FF00020202020200000002020202020593A25B9
:1050000064202020202020202020202020000000BC
:10501000202020202020202053484F5020202020D6
:1050200020202020000000002DE9F0472E4C2F4DBD
:105030002F4EA0694FF6FF7A002790B1012251460A
:105040003046FCF7CAFC012204212846FCF7C5FCC7
:105050000A20FCF77FFB002204212846FCF7BDFC58
:10506000A76121483830016809B94068E8B1276173
:10507000E0684FF40079002820692FD000284FF411
:1050800080784FF001025146304611D0FCF7A5FC64
:10509000002241463046FCF7A0FC606978B14946E1
:1050A0003046FCF792FC676109E001202061DFE7F0
:1050B000FCF793FC002241463046FCF78EFC0122AF
:1050C00004212846FCF789FC0A20FCF743FB28460C
:1050D000BDE8F04700220421FCF77FBC4FF001023D
:1050E00051460028D6D1E7E700000020000C004818
:1050F00000080048FCF784FCFEF76CFDFEF73EFA62
:10510000FEF7CAFAFEF714FBFDF7ACFF04210F48C7
:10511000FDF708FCFEF72CF94FF6FF70FEF796F945
:105120000020FEF77FF90948012209494C30FDF7BC
:10513000D3FE00BFFCF728FAFFF7DCFDFFF784FE83
:1051400000F008F8FFF770FFF4E700006C000020A3
:10515000000000200548816805480129006802D048
:105160001921816370479621FBE7000000000020B1
:105170006C00002010B50446FDF7D8FFA020FDF715
:10518000AEFFFEF709F82046FDF7A9FFFEF704F889
:10519000FDF7CCFFA120FDF7A2FFFDF7FDFFFDF716
:1051A00077FF0446FDF7F8FFFDF7DBFF204610BD53
:1051B00070B50D460446FDF7B9FFA020FDF78FFF3F
:1051C000FDF7EAFF2846FDF78AFFFDF7E5FF2046D9
:1051D000FDF785FFFDF7E0FFBDE87040FDF7C1BFBB
:1051E00010B500290AD00878002807D0054878446F
:1051F000FBF708FA002801D0002010BD02487844CF
:1052000010BD00000E1800000618000021F000423A
:10521000A2F16052B2F5801F01F0004328BFD2F125
:105220007F6C0BD95FEA001C43EAC20242EB50706C
:1052300018BF704728BF20F001007047B2F5801FEB
:10524000BCBF184670474FEA410C1CF5001F02D244
:10525000084600F069BA70B500F0B2F800000089A5
:10526000FFF7F6BF4FF00040A0F580007047000048
:1052700010B591EA030F48BF83F0004300F1FC80B2
:10528000841A71EB030C05D2121943EB0C03001BBB
:1052900061EB0C01DFF824E14FEA1154A4EB135C3D
:1052A0001EEA430F18BF9EEA445F73D023EA0E0341
:1052B000DCF1200E21EA045143F4801332D322FAA8
:1052C0000CFE10EB0E0023FA0CFE41EB0E01CCF1AC
:1052D000200E03FA0EFE10EB0E0051F10001B1F5A5
:1052E000801FCCF1200E32D201EB045112FA0EF2E3
:1052F000BDE8104058BF7047401C38BF5FEA42020B
:1053000018BF7047002814BF20F0010041F10001D0
:105310004FEA410313F5001F38BF7047A1F1C041A8
:1053200000F09CB8012A43EB0302ACF1200CDCF145
:105330001F0E32BF4FF0000E23FA0CF310EB0300E8
:1053400041EB0451B4EB115FD0D0A1EB045101F556
:10535000801149085FEA300001EB04510ED350F18F
:10536000000038BF12FA0EFE08D1BDE81040C9E7B0
:10537000401C38BF5FEA4202CAD1C3E7BDE8104013
:105380004FEA410313F5001F38BF7047A1F1C04138
:1053900000F064B89EEA445F08D011EA5E0FBDE8F1
:1053A000104004BF01F0004100207047BDE81040EC
:1053B00070B500F005F800BF64FBBE3E0000E0FFE2
:1053C0000EF1020E2EF0030E5EF8046B364205D489
:1053D000012A43EB030515F5001F12D8012841EB04
:1053E000010C1CF5001F0CD80ED14FEAD17C15F52D
:1053F000001F0CEB4C0C0CF1020C08BF4CEBD37CE7
:1054000004E04FF0080C01E04FEAD37C0CEB4C05B4
:1054100026FA05F606F00706B6F1040C06D20EEBE6
:10542000860CBDE870404CF0010C6047DFE80CF0E2
:10543000090B02024FF000414FF00000A1F50021DE
:1054400070BD19461046012851EB010418BFD4F570
:10545000001484BF002001F0004170BD0808A0F5D1
:1054600000114FEA3101704710B591EA030F48BFB0
:1054700083F000433FF504AF841A71EB030C07D2AD
:1054800012198CF0004C43EB0C03001B61EB0C0178
:10549000DFF8A4E14FEA1154A4EB135C1EEA430FBA
:1054A00018BF9EEA445F00F0B08023EA6E035242C8
:1054B00021EA0451C3EB6E0338BF5B1EDCF1200E02
:1054C00025D322FA0CFE10EB0E0043FA0CFE41EB42
:1054D0000E01CCF1200E03FA0EFE10EB0E0051F17E
:1054E0000001CCF1200E29D412FA0EF201EB045186
:1054F000BDE8104058BF7047401C1CBFB2F1004FC0
:10550000704700280CBF491C20F00100704712EBC7
:10551000020E43EB030218BF4FF0010E4EEA4202A7
:10552000ACF1200CDCF11E0E54D943FA0CFE10EB4A
:105530000E0051F1FF31CCF11E0ED5D50EF1010E4A
:1055400012FA0EFE404141EB010101EB445C5FEABF
:105550005C5C10D910EBDE7001EB045138BFBEF17A
:10556000004FBDE8104018BF704700280CBF491C11
:1055700020F00100704730D24FEAD42C11F5001111
:1055800024F400641BD0B1FA81F20B3AA41AA41ED1
:10559000D2F12003914030FA03F31943904001EB1C
:1055A000CC71002C01EB0451BDE81040A8BF70473E
:1055B00001F1C0414FF0000001F000417047B0FA26
:1055C00080F310FA03F100D110BDE41A173C48052E
:1055D000C90AE4E701EB045110BD491001EB045185
:1055E000BDE810404FEA300002E04FF00001704784
:1055F0004A0008BF0042F8D0B2F5001F28BF70472C
:1056000001F000414FF0000070479EEA445F07D070
:1056100011EA5E0FBDE8104004BF00210020704772
:10562000BDE8104070B5FFF7CBFE00BF40DFF63E8F
:1056300083F00041104670470000E0FF43004FEA4E
:10564000D30C4FEA3C0C43401FBF40070CF16051A4
:1056500013F0FE4F70471CF0006F03D100200CF0D8
:10566000004170470CF0004343EA507010B540EA27
:10567000CC0000F00EF800BF000000924FEA0001DD
:10568000FFF7ECBE4FF000414FF00000A1F5002104
:1056900070470EF1020E2EF0030E5EF8044B24420A
:1056A00004D44FEA4102B2F17F4F11D84FEA4003D0
:1056B000B3F17F4F0CD80ED14FEAD07CB2F17F4FBF
:1056C0000CEB4C0C0CF1020C08BF4CEBD17C04E051
:1056D0004FF0080C01E04FEAD17C0CEB4C0324FAAC
:1056E00003F404F00704B4F1040C06D20EEB840CAE
:1056F000BDE810404CF0010C6047DFE80CF00708F3
:1057000002024FF00040A0F5800010BD08464200A4
:1057100018BFD2F1807288BF00F0004010BD4FF07A
:105720004070E1EE100A7047FF2141EAD050C005F9
:105730007047FBF7DAB8000000000000000000002E
:105740000000000000000000000000000000000059
:105750000000000000000000000000000000000049
:105760000000000000000000800180018001800135
:105770008001800180018001800180018001800121
:105780008001000000008001800100000000000096
:1057900000000000000000000000CC00CC00CC00A5
:1057A000CC00CC00CC000000000000000000000095
:1057B00000000000000000000000000000000000E9
:1057C00000000000000000000000000000000000D9
:1057D0000000600C600C600C30063006FE1FFE1FDF
:1057E000300638071803FE1FFE1F180318038C012C
:1057F0008C018C01000000008000E003F80F9C0E7B
:105800008C1C8C188C009800F801E007800E801C1E
:105810008C188C189C18B80CF00FE00380008000E6
:105820000000000000000000000000000E181B0C2B
:10583000110C11061106110311039B018E01C038D2
:10584000C06C60446044304430441844186C0C38D8
:105850000000000000000000E001F0033807180617
:1058600018063003F001F000F8009C310E33061EDC
:10587000061C061C063FFC73F0210000000000001F
:10588000000000000000000000000C000C000C00F4
:105890000C000C000C0000000000000000000000E4
:1058A00000000000000000000000000000000000F8
:1058B0000000000000000000000200038001C000A2
:1058C000C000600060003000300030003000300068
:1058D00030003000300060006000C000C000800177
:1058E000000300020000000020006000C0008001F2
:1058F0008001000300030006000600060006000603
:105900000006000600060003000380018001C000BD
:105910006000200000000000000000000000000007
:105920000000C000C000D806F807E00130033807C7
:105930000000000000000000000000000000000067
:105940000000000000000000000000000000000057
:10595000000080018001800180018001FC3FFC3F4C
:1059600080018001800180018001000000000000B2
:105970000000000000000000000000000000000027
:105980000000000000000000000000000000000017
:105990000000000000000000800180010001000103
:1059A0008000000000000000000000000000000077
:1059B0000000000000000000000000000000E00700
:1059C000E0070000000000000000000000000000F0
:1059D00000000000000000000000000000000000C7
:1059E00000000000000000000000000000000000B7
:1059F0000000000000000000C000C0000000000027
:105A00000000000000000000000C000C0006000672
:105A10000006000300030003800380018001800171
:105A2000C000C000C0006000600000000000000076
:105A30000000000000000000E003F007380E180C22
:105A40000C180C180C180C180C180C180C180C1836
:105A50000C18180C380EF007E003000000000000DE
:105A6000000000000000000000018001C001F00102
:105A700098018801800180018001800180018001FE
:105A80008001800180018001800100000000000091
:105A90000000000000000000E003F80F180C0C18D4
:105AA0000C1800180018000C000600038001C0004C
:105AB000600030001800FC1FFC1F00000000000008
:105AC0000000000000000000E001F807180E0C0CB8
:105AD0000C0C000C0006C003C007000C00180018D6
