:020000040800F2
:10000000683C0020590300081F400008A73700087B
:100010001D4000082F170008FD54000800000000D4
:10002000000000000000000000000000990200082D
:100030003117000800000000F50200086D450008B7
:1000400073030008730300087303000873030008B8
:1000500073030008730300087303000873030008A8
:100060007303000873030008730300087303000898
:100070007303000873030008730300087303000888
:1000800073030008000000007303000873030008F6
:100090007303000873030008730300087303000868
:1000A000730300081946000873030008730300086F
:1000B0002546000873030008730300087303000853
:1000C0007303000873030008730300087303000838
:1000D00073030008F1540008730300087303000859
:1000E0007303000873030008730300087303000818
:1000F0007303000873030008730300080000000086
:1001000000000000730300080000000073030008F3
:100110007303000800000000730300087303000865
:1001200073030008730300087303000873030008D7
:1001300073030008000000000000000073030008C3
:1001400073030008730300080000000000000000B3
:10015000000000000000000000000000000000009F
:100160000000000000000000000000007303000811
:100170007303000800000000000000000000000001
:1001800000000000730300080000000000000000F1
:10019000000000000000000000000000000000005F
:1001A0000000000000000000730300087303000853
:1001B00073030008730300087303000800000000C5
:1001C00000000000730300080000000000000000B1
:1001D000730300087303000800F002F800F04CF805
:1001E0000AA090E8000C82448344AAF10107DA4592
:1001F00001D100F041F8AFF2090EBAE80F0013F098
:10020000010F18BFFB1A43F00103184724810000B7
:1002100044810000103A24BF78C878C1FAD8520748
:1002200024BF30C830C144BF04680C607047000070
:100230000023002400250026103A28BF78C1FBD8EF
:10024000520728BF30C148BF0B607047662906F0CF
:10025000C886642900F05481002070471FB506F05D
:10026000BBFE00F027FD04000020002106F0F8F995
:10027000E0601FBD10B510BD00F01CFE1146FFF779
:10028000EDFF05F051FC00F03AFE03B4FFF7F2FF7A
:1002900003BC00F07DFE00002C4B19680868B0E834
:1002A000F04F80F30988BFF36F8F4FF0000080F3A9
:1002B000118870470000000008480068006880F35B
:1002C00008884FF0000080F3148862B661B6BFF36F
:1002D0004F8FBFF36F8F00DF00BF00BF08ED00E05E
:1002E000DFF80C00016841F470010160704700BF45
:1002F00088ED00E0EFF30980BFF36F8F134B1A68AE
:100300001EF0100F08BF20ED108A20E9F04F10609A
:1003100009B44FF0500080F31188BFF34F8FBFF343
:100320006F8F06F001F84FF0000080F3118809BCD0
:1003300019680868B0E8F04F1EF0100F08BFB0EC65
:10034000108A80F30988BFF36F8F70476000002028
:10035000EFF30580704700000948804709480047CF
:10036000FEE7FEE7FEE7FEE7FEE7FEE7FEE7FEE765
:10037000FEE7FEE704480549054A064B70470000C2
:1003800009460008D9010008682B0020683C0020BD
:10039000682D0020682D002053EA020C00F06980CF
:1003A0002DE9F04B4FF00006002B1FBFB3FA83F589
:1003B00003FA05F424FA05F65E4012BF1643B2FABA
:1003C00082F502FA05F4C5F120051EBF22FA05FCEC
:1003D00044EA0C04203556EA044C4FEA144418BF92
:1003E000641C4FF000084FF00009904271EB030CC1
:1003F00039D3002919BFB1FA81F701FA07F6B0FA2B
:1004000080F700FA07F6C7F120071EBF20FA07FCA5
:1004100046EA0C062037B6FBF4FCA7EB0507103FB5
:1004200007F01F0BCBF120060CFA0BFB2CFA06F69B
:1004300044BFB3460026202FA4BF5E464FF0000BFA
:100440005BEA060C08BF4FF0010B19EB0B09ABFB85
:10045000027C48EB0608C01B06FB02CC0BFB03CC5E
:1004600071EB0C01C1E70B46024641464846BDE828
:10047000F08B13B54FF000004FF00001AFF3008098
:10048000BDE81C40704700000FB41CB5074B06AA1E
:100490007B4469460090059800F0F3FB0020694614
:1004A00000F002FC1CBC5DF814FB00001508000005
:1004B00070B5044685690068C10601D5302600E0A4
:1004C0002026C00707D070BDD4E9012130469047EF
:1004D000206A401C20626D1EF6D570BD70B50446C2
:1004E00085690078C00707D170BDD4E901212020BB
:1004F0009047206A401C20626D1EF6D570BD00003A
:100500002DE9F0410646002410687529314616A5EC
:1005100010D0AFF30080002802DA404213A507E0B4
:1005200031688A0701D512A502E0490704D511A553
:10053000012401E0AFF3008000210A2206F1240724
:1005400009E0B0FBF2FCB0FBF2F302FB1C00303020
:1005500078541846491C0028F3D123462A463046D1
:10056000BDE8F04100F01FB9000000002D000000C0
:100570002B000000200000002DE9F05F89460446B2
:100580004FF0000ADFF824B1FB44C0F820A0204659
:10059000E168884700287DD0252806D0D4E90121CC
:1005A0009047206A401C2062F1E700255F46204604
:1005B000E16888472028064607DB312E05D2B819A6
:1005C00010F8200C08B10543F1E7A80701D525F084
:1005D0000405C4F81CA00027C4F818A02A2E09D0CE
:1005E000304604F0B4FF38B304EB8708303EC8F857
:1005F000186019E059F8041B204604EB870291614A
:10060000E1688847012F064618D1E069002820DA02
:1006100025F020051DE0D8F8180000EB800006EB5F
:1006200040003038C8F818002046E1688847064680
:1006300004F08DFF0028EED1012F0AD02E2E08D114
:100640002046E16888477F1C0646022F45F02005BA
:10065000C4DBA069002803DA404245F00105A0612F
:10066000E80701D025F01005A6B1A6F14100192830
:1006700002D8203645F400654A46314620462560BA
:100680004D46FFF7E3FD60B1012807D0ED1D25F0D1
:10069000070000E007E000F1080978E705F1040928
:1006A00075E730467AE7206ABDE8F09FD07C00000D
:1006B00010B5431C02E010F8011B71B18107FAD19B
:1006C0004FF0013202C88C1A8C4314EAC211F9D0DF
:1006D000C01A0A0603D0C01E10BDC01A10BD0A04FD
:1006E00001D0801E10BD0902FCD0401E10BD10B507
:1006F000203AC0F00B80B1E81850203AA0E818501A
:10070000B1E81850A0E81850BFF4F5AF5FEA027CDA
:1007100024BFB1E81850A0E8185044BF18C918C049
:10072000BDE810405FEA827C24BF51F8043B40F8EA
:10073000043B08BF7047D20728BF31F8023B48BFCF
:1007400011F8012B28BF20F8023B48BF00F8012B0D
:1007500070474FF0000200B5134694469646203984
:1007600022BFA0E80C50A0E80C50B1F12001BFF46A
:10077000F7AF090728BFA0E80C5048BF0CC05DF8D0
:1007800004EB890028BF40F8042B08BF704748BF1E
:1007900020F8022B11F0804F18BF00F8012B704792
:1007A0007047704770472DE9F0470D4699469246CD
:1007B000044600F124080168880604D5E06921F0A8
:1007C0001001216000E00120A84201DD471B00E08C
:1007D0000027A1697A1902EB0900081AA0612078A4
:1007E000C00602D42046FFF763FE002608E0D4E9E5
:1007F00001211AF806009047206A401C761C2062EE
:100800004E45F4DB2078C0060AD52046FFF750FE9F
:1008100006E0D4E9012130209047206A401C206284
:10082000381EA7F10107F4DC07E0D4E9012118F82C
:1008300005009047206A401C2062281EA5F1010592
:10084000F3DC2046FFF74AFE2078000602D502209E
:10085000BDE8F0870120FBE770472DE9FF4F0C460C
:100860001E464FF0FF378BB0D2E90001DDF8608003
:100870000A908A46C1F30A5505B93D46002108464B
:100880004FF00000BAF1000F00F4400005DA00EB71
:1008900080004FF4400101EA50004FEA9059B9F14D
:1008A000010F00DDB9460A9850EA4A000ED044F61E
:1008B0001050A5F2FF3545432F14B8F1000F1ED09C
:1008C0007542291E1EDDC9F100021CE0B8F1010FBE
:1008D0004FF0000001D0302103E0F24305E0215445
:1008E000401CB042FBDB30460022002121540B9912
:1008F000C1F80880C1E900200FB0BDE8F08FBD1B32
:100900006D1CDEE74A4600DA694206A800F05CFA90
:1009100006AB93E8070003AB83E8070050460A994B
:1009200000F03DFB8DE80700A0F500501F38009057
:100930000398002D0ADD42F21F014A4608440023B5
:1009400003A90390684600F0A6FD09E0A0F5005059
:100950004A461F38002303A90390684600F0B0FD03
:100960008DE807000004000C03D04FF0FF30410871
:1009700000E01046B8F1000F03D0002200921546A7
:100980001EE0751E05D400F099F9303262556D1ED7
:10099000F9D5B3460122084302D000227F1C04E0AF
:1009A0002078302801D100227F1E002A099784D0A8
:1009B0001DE0112D07DA00F081F9303262556D1C0F
:1009C00050EA0102F5D1084302D00098C8B10EE008
:1009D0000021681E05E0235C625C63542254401EC3
:1009E000491C8142F7DBAB46A81B401E0990002042
:1009F00004F80B000B98099AC0F80880C0E9002B96
:100A00007AE711264FF0000857E72DE9F04F8846A6
:100A10000446D21D22F0070191B0D1E90001CDE9D1
:100A20000A0104F06CFD02460B98C00F01D02D2086
:100A300007E02068810701D52B2002E0202101EA90
:100A4000C000032A099001D0072A05DB034641466E
:100A5000204600F079F90BE12078800601D5E069A5
:100A600000E00620B8F1650F814606D0B8F1660FA8
:100A700018D0B8F1670F70D131E00020B9F1110F33
:100A8000009001DB112301E009F101030AAA01A989
:100A90000CA8FFF7E2FEDDE90C70002609F1010564
:100AA000834647E001204B4600904FF000470AAADA
:100AB00001A90CA8FFF7D1FEDDE90DB00C995D4648
:100AC000002610B909F101000D18B9EB050003D497
:100AD000C0F1FF3609F10105A5EB09002BE0B9F1E2
:100AE000010F01DA4FF001090020B9F1110F009058
:100AF000484601DD112300E003460AAA01A90CA81B
:100B0000FFF7ABFEDDE90C704D46002683462078EA
:100B100000070AD4AB4500DA5D4601A8012D04DDCB
:100B2000411911F8011C302907D04F4502DA17F19D
:100B3000040F04DA012082460FE06D1EEEE7002F5D
:100B400002DCED1B3E4403E0781CA84200DD7D1C66
:100B5000B81B00F1010A4FF000472078000703D4CA
:100B6000AA4501DB4FF0FF3A0021B7F1004F0DF12C
:100B700043088DF8431024D002202B23002F01DAE4
:100B80007F422D230A21021EA0F1010000DC5FB18B
:100B900097FBF1FC97FBF1F201FB1C7C17460CF173
:100BA000300C08F801CDEEE7A8F1010003702188B0
:100BB000090501D5452100E06521A0F1010800F8F3
:100BC000011C09980FA9A1EB0807FF1D00B1012026
:100BD000411901EBEA70A1693844081A401EA0616E
:100BE0002078C00602D42046FFF762FC099828B19D
:100BF000D4E901219047206A401C20622078C00679
:100C000022D52046FFF754FC1EE0002E04DBB3453E
:100C100002DD01A8805D00E03020D4E90121904789
:100C2000206A401C2062761CAAF101005FEA000ADB
:100C30000AD100F03FF8C0680168405CD4E90121A6
:100C40009047206A401C2062281EA5F10105DCDCCB
:100C500007E0D4E9012118F8010B9047206A401CF5
:100C60002062381EA7F10107F3DC2046FFF736FCAF
:100C7000032011B041E6000001694A1C02610878B6
:100C8000704700B58FB0CDE90131002105910549CC
:100C90007944CDE9031011466846FFF76DFC0FB0AB
:100CA00000BD0000E5FFFFFF0A6802F8010B0A60C3
:100CB0007047000000487047282B002030B5B0F185
:100CC0000A024FEA900E71F100034EEA817EB0EB0A
:100CD0000E0061EB91014FEA101E4EEA017E10EB0F
:100CE0000E0041EB11114FEA102E4EEA016E10EB8F
:100CF0000E0041EB11214FEA104E4EEA014E10EB6F
:100D00000E0041EB1141401841F100014FEAD000C3
:100D100040EA41704FEAD10110EB80054FEA8104AF
:100D200044EA907444EB01046D1944EB0404521B33
:100D3000A3414FF0000348BF0A3200D530BD401C2C
:100D400041F1000130BD00002DE9F0411F4604468D
:100D500003260168072A01F4006004DB08B116A528
:100D600005E016A503E008B115A500E015A521F0E2
:100D700010002060A069C01EA0610FB1401EA061DC
:100D80002046FFF795FB4FB1D4E901213846904743
:100D9000206A401C2062C01C206206E0206AFAE73C
:100DA000D4E9012115F8010B9047761EF8D22046B0
:100DB000FFF794FBBDE8F0814E414E006E616E007E
:100DC000494E4600696E66002DE9F0478146164699
:100DD0008AB0354878440DC88DE80D003248784413
:100DE000801C03AC0DC884E80D0041F69B3008441C
:100DF000372190FBF1F290FBF1F5A5F1800501FBA5
:100E000012041B3C02D56442012000E00020DFF800
:100E100098A080460027FA44AAF1BE0A0EE0E00737
:100E20000AD03246684607EB470101230AEB8101ED
:100E300000F046FB8DE8070064107F1C002CEED10B
:100E4000194F7F44AE3F19E0E80715D007EB0410B7
:100E50000DF1180A90E80E008AE80E00C068F04212
:100E600001D1981908903246012306A903A800F081
:100E700027FB03AB83E807006D10641C002DE3D152
:100E80004FF0010332466946B8F1000F03A802D0C3
:100E900000F001FB01E000F013FBC9E90001C9F813
:100EA00008200AB0BDE8F0871475000000487047BC
:100EB000082B00207546FFF7F9FFAE46050069468E
:100EC000534620F00700854618B020B5FFF752FAC8
:100ED000BDE820404FF000064FF000074FF000083B
:100EE0004FF0000B21F00701AC46ACE8C009ACE8BC
:100EF000C009ACE8C009ACE8C0098D46704710B520
:100F00000446AFF300802046BDE81040FFF7BDB9AE
:100F10004FF0013C50F8042B51F8043B9A4221D188
:100F2000A2EB0C03934313EACC1317D150F8042B14
:100F300051F8043B9A4215D1A2EB0C03934313EAF8
:100F4000CC130BD150F8042B51F8043B9A4209D131
:100F5000A2EB0C03934313EACC13DBD04FF0000059
:100F6000704700BFD01A01BAB1FA81F101F018013F
:100F700022FA01F0CB40C1F12001DBB2C0B2C01AAD
:100F80002CFA01F3D11A914311EAC311E6D170474B
:100F900001491820ABBEFEE72600020070475FEA59
:100FA000400C08BF91F0000F4FEA8C234FEAC1229A
:100FB00043EA51514FEA1C5018BF00F5F0404FEA88
:100FC000300018BF41F000415FEA6C5C00F02980FE
:100FD000BCF1FF3F08BF40F080407047130C06BFD4
:100FE00012044FF0100C4FF0000C130E04BF12024D
:100FF0000CF1080C130F04BF12010CF1040C930F39
:1010000004BF92000CF1020CD30F04BF52000CF18C
:10101000010C11464FF00002A0F11F00A0EB0C00E4
:10102000704711F0004F08BF704731F000413FF4A6
:10103000D5AF0B0C06BF09044FF0100C4FF0000C9D
:101040000B0E04BF09020CF1080C0B0F04BF0901C1
:101050000CF1040C8B0F04BF89000CF1020CCB0FB8
:1010600004BF49000CF1010CCCF12003A0EB0C00F3
:1010700022FA03F302FA0CF241EA030100F1010043
:10108000704720F07F4C80EA030023F07F47ACEBF1
:10109000070303F57C5300F0004003F1FF032DE943
:1010A00080494FEA154B09B44FEA144325EA0B4E29
:1010B00024EA03480FF2042606EB132749083E787A
:1010C0005FEA320203FB0667C7F5000707FB06F677
:1010D0004FEA54374FEAD64606F1020607FB066C84
:1010E000CCF1005C4FEA1C472CEA074C07FB06F4E6
:1010F0000CFB06F504EB15464FEA961634BF0020AC
:101100004FF000404FEAD13706FB07FC4FEA1C4C7A
:101110000CFB0BF7D21B03FB0CF761EB07010CFB7D
:101120000EF7B0EB074072EB17420CFB08F734BF29
:10113000A2EB0742B2EB074261EB17414FEA0C44C6
:101140004FEA910706FB07FC4FEA1C4C0CFB0BF720
:10115000B0EBC74072EB573203FB0CF734BFA2EB86
:10116000C742B2EBC74261EB57310CFB0EF7B0EB55
:10117000C70072EB57720CFB08F734BFA2EBC70233
:10118000B2EBC70261EB5771039F4FEA816141EAFD
:10119000921104EBCC044FEAD1374FEA826206FB8E
:1011A00007FC42EA90124FEA80604FEA1C4C0CFBAD
:1011B0000BF7D21B03FB0CF761EB07010CFB0EF7DF
:1011C000B0EB074072EB17420CFB08F734BFA2EB01
:1011D0000742B2EB074261EB17414FEA8C554FEAE9
:1011E000910704EB9C2406FB07FC4FEA1C4C0CFB0C
:1011F0000BF7B0EBC74072EB573203FB0CF734BF71
:10120000A2EBC742B2EBC74261EB57310CFB0EF7C2
:10121000B0EBC70072EB57720CFB08F734BFA2EBC0
:10122000C702B2EBC70261EB577115EB4C254FEAD1
:10123000816141EA92114FEA82624FEAD13742EA74
:10124000901206FB07FC44F100044FEA80604FEA6D
:101250001C4C0CFB0BF7D21B03FB0CF761EB0701DB
:101260000CFB0EF7B0EB074072EB17420CFB08F7D4
:1012700034BFA2EB0742B2EB074261EB174115EB1B
:101280001C154FEA813141EA92414FEA823242EA2B
:1012900090424FEA80304FEA0C7644F1000448EA6D
:1012A00003434EEA0B484FF0000EB2EB080C71EB13
:1012B000030724BF624639464EEB0E0E4FF0000B7B
:1012C0000018524149414BEB0B0BB2EB080C71EB90
:1012D00003077BF1000B24BF624639464EEB0E0E2E
:1012E0004FF0000B0018524149414BEB0B0BB2EB96
:1012F000080C71EB03077BF1000B24BF62463946F3
:101300004EEB0E0E51EA020718BF46F0010616EB2F
:101310000E7655F1000254F1000103D5BDE88901B4
:10132000BDE80088BDE88901BDE80048B619524112
:1013300041EB0101A3F10103704780807F7E7D7C3A
:101340007B7A7978777676757473727171706F6E57
:101350006E6D6C6C6B6A6A69686867666665646402
:10136000636362616160605F5F5E5E5D5D5C5C5B8C
:101370005B5A5A59595858575756565555555454FB
:10138000535352525251515050504F4F4F4E4E4D59
:101390004D4D4C4C4C4B4B4B4A4A4A4949494848A5
:1013A00048474747474646464545454444444443E5
:1013B00043434342424242414141002B9C4630D488
:1013C00077002BD01CB54FEA370703B44FF010005D
:1013D0004FF01001BAF1000F06D0BCF1000FDCBFD6
:1013E00040F0080040F008014FF000000FBCBDE8DD
:1013F00010400BF1010BBBF1010F08BF5FEA1707AB
:1014000022BF12F1010211F101014FF0004143F13D
:10141000000300F0004043EA00007047F9D357088A
:10142000D0E746EA064613F1400F4FEA16461FDDA5
:1014300013F1200FDFBF16430A46002120335B4221
:10144000BED0C3F1200746EA064602FA07F74FEA84
:10145000164646EA0706C3F1200722FA03F201FA0C
:1014600007F721FA03F14FF0000342EA0702A7E76A
:1014700046EA020646EA06464FEA164646EA0106EC
:10148000BCBF46EA0646360C4FF000034FF00002A0
:101490004FF0000194E72DE9804C9A46934670B4D2
:1014A00091E8380007C831EA400C48BF34EA430CE1
:1014B00003D5FFF7E6FDFFF780FFF0BCBDE8008C29
:1014C0002DE9804C9A46934670B491E8380007C8DD
:1014D00010F0804F08BF13F0804F03D100F005F8E3
:1014E000FFF76BFFF0BCBDE8008C20F07F4780EA7F
:1014F000030023F07F4C07EB0C03A3F57C5300F0B3
:101500000040A3F1FE0392F0000F00F0B38095F0CD
:10151000000F00F077802DE901494FEA11404FEAB2
:10152000144621EA004800FB06FC24EA064708FBB3
:1015300006F607FB08F800FB07F718EB06484CEB2C
:10154000164C4FEA124B18EB07484FEA15464CEB86
:10155000174022EA0B4E0BFB06FC25EA06470EFB62
:1015600006F607FB0EFE0BFB07F71EEB064E4CEBD9
:10157000164C4FF000061EEB074E4CEB174B18EBCA
:101580000B0840F1000018EB0E0B58EB000840F17F
:1015900000008F1A4FF000013CBFC943661B14BF07
:1015A000B5EB040C00213CBFC943F61B4FEA1744BE
:1015B0004EEA8E0E27EA04454FEA1C4704FB0762F9
:1015C0002CEA074C05FB07F70CFB05F604FB0CFCAB
:1015D00016EB074642EB174216EB0C4642EB1C4259
:1015E0001BEB060658EB0202414146EA9E0601D576
:1015F000BDE80189B619524141EB0101A3F1010394
:10160000BDE801894FEA14454FEA114724EA05462F
:1016100021EA074C05FB07F406FB07F70CFB06F174
:1016200005FB0CFC11EB074144EB17444FEA124752
:1016300011EB0C4144EB1C4422EA074C05FB07F27A
:1016400006FB07F70CFB06F605FB0CFC16EB074642
:1016500042EB174216EB0C4642EB1C456A1854F15C
:10166000000148BF7047B619524141EB0101A3F197
:101670000103704795F0000F37D04FEA11424FEA4F
:10168000144721EA024624EA074C02FB07F106FB55
:1016900007F70CFB06F402FB0CFC14EB074441EBD0
:1016A00017414FEA154714EB0C4441EB1C4125EA66
:1016B000074C02FB07F506FB07F70CFB06F602FBDF
:1016C0000CFC16EB074645EB174516EB0C4645EBB5
:1016D0001C42121951F1000148BF7047B61952411E
:1016E00041EB0101A3F1010370474FEA14454FEAB2
:1016F000114724EA054621EA074C05FB07F106FBE2
:1017000007F70CFB06F24FF0000605FB0CFC12EB92
:10171000074241EB174112EB0C4251EB1C4148BF11
:101720007047921841EB0101A3F101037047FEE7F6
:101730007047002240F6B83306E00021491C89B208
:101740009942FBD3521C92B28242F6D3704772B6D2
:10175000FEE710B590F8253000210122022B03D0BE
:101760000421C163012122E003681C6824F00E04F7
:101770001C60836C1C6824F480741C6003681C6803
:1017800024F001041C6090F84430046C03F01F0343
:1017900002FA03F36360D0E913345C60436D33B144
:1017A0001C6824F480741C60D0E916345C6080F8F6
:1017B0002520002280F82420084610BD70B590F83E
:1017C0002520002401212346022A07D00422C263D7
:1017D00080F8251080F82430012429E0026815687B
:1017E00025F00E0515600268156825F001051560E5
:1017F000826C156825F48075156090F84420056C9E
:1018000002F01F0201FA02F26A60D0E91325556066
:10181000426D32B1156825F480751560D0E9162542
:10182000556080F8251080F82430816B01B188471D
:10183000204670BD70B5044600F03CF90546601CBA
:1018400002D004484068044400F034F9401BA04230
:10185000FAD370BD500000202DE9F04FDFF8209240
:10186000002301260324A9F1040B85B00F2709F1F9
:10187000040AABF1040EFAE006FA03F52A407CD024
:1018800091F804C00CF0030CBCF1010F02D0BCF1C4
:10189000020F26D1D0F808C0CDF800C04FEA430CA3
:1018A00004FA0CF8CDF810C0DDF800C02CEA080CE2
:1018B000CDF800C0D1F80C80DDF810C008FA0CF8A3
:1018C000DDF800C048EA0C08C0F80880D0F804C071
:1018D0002CEA050C0D79C5F300159D4045EA0C0571
:1018E00045600D79ED43AD070ED0C5684FEA43085A
:1018F00004FA08FC25EA0C05D1F808C00CFA08FC2B
:101900004CEA050CC0F80CC00D7905F00305022D5A
:1019100016D1DD0800EB850CCDF808C0DCF820807E
:101920005D074FEAD56C07FA0CF528EA05080D6942
:1019300005FA0CF5DDF808C045EA0805CCF820509A
:1019400005684FEA430CCDF808C004FA0CFC25EA00
:101950000C0591F804C00CF00308DDF808C008FA83
:101960000CF848EA0508C0F800804D6815F4403FBF
:101970007CD0444DD5F860C000E077E04CF0010C1D
:10198000C5F860C02D6E23F0030C05F0010500952D
:101990003D4D65440295AD684FEA837C4FEA1C7863
:1019A00007FA08FC25EA0C05B0F1904F06D0DFF8E5
:1019B000DCC0604505D14FF0010C20E04FF0000C79
:1019C0001DE0DFF8CCC0604502D14FF0020C16E0FC
:1019D000DFF8C0C0604502D14FF0030C0FE0DFF824
:1019E000B8C0604502D14FF0040C08E0DFF8ACC08D
:1019F000604502D14FF0050C01E04FF0060C0CFAE7
:101A000008FC4CEA050C029DC5F808C0D9F8005046
:101A1000CC46D1F8048095435FEAC82800D5154329
:101A2000CCF80050DAF80050D446D1F80480954341
:101A30005FEA882800D51543CCF80050DBF8005049
:101A4000DC46D1F8048095435FEA883800D5154319
:101A5000CCF80050DEF80050F446D1F804809543ED
:101A60005FEAC83800D51543CCF800505B1C0A6803
:101A700032FA03F57FF400AF05B0BDE8F08F000047
:101A8000080401400010024000000140000400482A
:101A900000080048000C00480010004800140048EE
:101AA0000069084000D0012070470AB18161704789
:101AB0008162704701488068704700005000002034
:101AC00002488168426811448160704750000020DC
:101AD00010B50024032000F09BF80F2000F008F858
:101AE00008B1012401E000F047F8204610BD0000D5
:101AF00030B505461B4887B0016E41F400610166B0
:101B0000006E06A900F40060009001A800F02AFB16
:101B100000F05AFB1449154AB0FBF1F11448491E74
:101B20000260416040F2E7320021C0E90321816098
:101B300000F081FF040012D10D4800F0C9FF04003D
:101B40000DD1192000F036F8102D07D200222946B9
:101B5000192000F03DF80748056000E0012407B0B7
:101B6000204630BD0010024040420F00002C0140D2
:101B7000CC010020500000200D4808B5016E41F056
:101B800001010166016E01F001010091816D41F0DA
:101B900080518165806D002200F0805000900F21FF
:101BA000901E00F015F8BDE8084000F0A1B8000054
:101BB00000100240002809DB00F01F0201219140C3
:101BC0004009800000F1E020C0F8001170470000DB
:101BD000F0B40E4B1B680C46C3F30223C3F1070598
:101BE000042D00D90425191D072901D2002300E086
:101BF000DB1E012606FA05F1491E214099409E4050
:101C0000761E16403143F0BC03F091BC0CED00E0B1
:101C1000064900F0070208684FF6FF03184040EA43
:101C20000220034A10430860704700000CED00E0FA
:101C30000000FA052B492C4B0A6832214A432B49F4
:101C400040B1B0F5007F086829D020F4C06040F4AE
:101C500080602CE00868C0F34120022804D051F8CD
:101C6000800F20F4807022E0D1F8800020F4807092
:101C7000C1F88000086820F4C06040F4007008607B
:101C8000B2FBF3F0401C00E0401E4A69520501D54A
:101C90000028F9D1486940050AD503207047C0F3F0
:101CA0004120022806D051F8800F40F4807008606F
:101CB00000207047D1F8800040F48070C1F88000A7
:101CC000086820F4C06040F400700860B2FBF3F0D4
:101CD000401C00E0401E4A695205DBD50028F9D1BE
:101CE000D8E700005C00002040420F000070004078
:101CF0000248816841F48041816070470070004073
:101D00002DE9F8430446006800269D4D00035ED58A
:101D1000A86D0027C00008D4A86D40F08050A865C9
:101D2000A86D012700F080500090DFF85892D9F894
:101D3000001041F48071C9F80010FFF7BBFE804627
:101D400006E000BFFFF7B6FEA0EB080002282BD884
:101D5000D9F80000C005F5D5D5F8900010F4407012
:101D600014D0216C814211D0D5F89000D5F8901094
:101D700020F4407041F48031C5F89010D5F89010EF
:101D800021F48031C5F89010C5F89000C00711D03B
:101D9000FFF790FE804641F2883907E0FFF78AFEA0
:101DA000A0EB0801494501D903260BE0D5F89000C6
:101DB0008007F3D5D5F89000216C20F440700843DB
:101DC000C5F890001FB1A86D20F08050A86520785C
:101DD000C00707D0D5F88800616820F003000843E9
:101DE000C5F888002078800707D5D5F88800A16855
:101DF00020F00C000843C5F888002078400707D57C
:101E0000D5F88800E16820F030000843C5F8880064
:101E10002078000707D5D5F88800216920F0C00098
:101E20000843C5F888002078800607D5D5F88800D3
:101E3000616920F440600843C5F8880020784006B6
:101E400007D5D5F88800A16920F440500843C5F8AB
:101E500088002078000607D5D5F88800E16920F4CD
:101E600040400843C5F888002088C00507D5D5F84C
:101E70008800216A20F440300843C5F88800208893
:101E8000800507D5D5F88800616A20F44020084312
:101E9000C5F88800208840050FD5D5F88800A16ACC
:101EA00020F440100843C5F88800A06AB0F5801FF0
:101EB00003D1E86840F48010E860208800050FD561
:101EC000D5F88800E16A20F440000843C5F888008E
:101ED000E06AB0F5800F03D1E86840F48010E86054
:101EE0002088C0040FD5D5F88800216B20F0407001
:101EF0000843C5F88800206BB0F1807F03D1E86803
:101F000040F48010E86020884FF0006180040ED516
:101F1000D5F88800626B20F040601043C5F8880057
:101F2000606B884203D1E86840F48010E860208844
:101F300040040ED5D5F88800A26B20F04060104315
:101F4000C5F88800A06B884203D1E86840F480108F
:101F5000E860208800040FD5D5F88800E16B20F0F8
:101F600040500843C5F88800E06BB0F1805F03D1B2
:101F7000E86840F48030E8603046BDE8F88300004F
:101F800000100240007000402DE9F0470E460500A9
:101F90004FF0000725D0DFF8AC81D8F8000000F042
:101FA0000F00B0420CD2D8F8001021F00F013143DD
:101FB000C8F80010D8F8000000F00F00B04210D1AF
:101FC0002968614CC80741F2883A5AD06868DFF83E
:101FD0007C91032808D0022820682DD040050028D5
:101FE0002CDB0120BDE8F08720688001F9D5E0688E
:101FF00000F00302E068C0F30310401C032A19D06C
:10200000534A00BFB2FBF0F0E268C2F3062250432D
:10201000E268C2F34162521C5200B0FBF2F0484544
:1020200017D9A06810F0F00F0CD0880711D5A86858
:1020300040B10EE0474AE5E78003D0E700F0D6F86C
:10204000484506D9A06820F0F00040F08000A0606C
:102050008027A068696820F003000843A060FFF7AC
:1020600029FD814606E000BFFFF724FDA0EB090132
:1020700051453AD8A068696800F00C00B0EB810FB8
:10208000F2D12868810714D5400703D5A06840F431
:10209000E060A0602878000705D5A06820F46050B3
:1020A00040F4E060A060A068A96820F0F000084358
:1020B00004E0802F03D1A06820F0F000A060D8F8E1
:1020C0000010404601F00F01B14216D9016821F01D
:1020D0000F0131430160FFF7EDFC074607E000BF49
:1020E000FFF7E8FCC11B514501D903207AE7D8F876
:1020F000000000F00F00B042F2D12878400705D56B
:10210000A068E96820F4E0600843A0602878000730
:1021100006D5A068296920F4605040EAC100A0609B
:1021200000F064F8A1680C4AC1F30311515C01F09E
:102130001F01C8400949086009480068BDE8F04728
:10214000FFF7D6BC002002400010024000B4C404D7
:102150000024F40000127A00448200085C00002091
:10216000500000200F2202600C4A936803F0030322
:102170004360936803F0F0038360936803F4E063C3
:10218000C36092684FF4E06303EAD202026104483C
:10219000006800F00F000860704700000010024067
:1021A000002002400548064900688968054AC1F3D5
:1021B0000221515C01F01F01C84070475C00002003
:1021C00000100240548200080548064900688968EA
:1021D000054AC1F3C221515C01F01F01C84070479C
:1021E0005C0000200010024054820008184910B51D
:1021F0008868C0F381021748012A0BD08A6843100F
:10220000C2F38102022A06D08A68C2F38102032A3D
:1022100003D0002010BD184610BDCA6802F00304A8
:10222000CA68C2F30312521C032C02D0B0FBF2F0B6
:1022300001E0B3FBF2F0CA68C968C2F3062250435A
:10224000C1F34161491C4900B0FBF1F010BD000031
:10225000001002400024F4002DE9F84304007AD075
:102260002078FA4DC00747D0A868E96800F00C0054
:1022700001F003010C2802D0082817D001E003293F
:1022800014D06068B0F5803F17D0B0F5A02F286853
:1022900017D020F480302860286820F4802028603F
:1022A0006068E0B1FFF706FC064614E0286880038A
:1022B00022D560680028D2D01EE0286840F4803023
:1022C000EDE740F480202860F7E700BFFFF7F2FB5E
:1022D000801B642870D828688003F7D50CE0FFF7CE
:1022E000E9FB064605E000BFFFF7E4FB801B64281E
:1022F000F0D828688003F7D4207880074CD5A868E8
:10230000E96800F00C0001F003010C2802D0042859
:102310000DD001E002290AD0E068002828682BD0FF
:1023200040F480702860FFF7C5FB064619E0286876
:10233000400502D5E068002891D06868217C20F033
:10234000FE4040EA01606860C1480068FFF7D0FBCA
:10235000002800D120E076E1FFF7ACFB801B0228CB
:10236000B8D828684005F7D56868217C20F0FE4081
:1023700040EA016068600FE020F480702860FFF799
:1023800099FB064605E000BFFFF794FB801B02287F
:10239000A0D828684005F7D42078000729D56069BF
:1023A0000028D5F8940013D040F00100C5F894003F
:1023B000FFF780FB064606E090E000BFFFF77AFBE0
:1023C000801B022886D8D5F894008007F6D510E047
:1023D00020F00100C5F89400FFF76CFB064604E00E
:1023E000FFF768FB801B022878D8D5F89400800797
:1023F000F6D42078400761D5A86D0026C00008D427
:10240000A86D40F08050A865A86D012600F08050AE
:10241000009090480168C90511D40168804641F4D4
:1024200080710160FFF746FB074604E0FFF742FBBF
:10243000C01B022852D8D8F80000C005F6D5A06805
:10244000012815D00528D5F8900016D020F00100FD
:10245000C5F89000D5F8900020F00400C5F8900071
:10246000A06841F28838B8B1FFF724FB07460EE0B8
:10247000D5F8900040F00100F0E740F00400C5F806
:102480009000F5E7FFF716FBC11B414526D8D5F8AC
:1024900090008007F6D50CE0FFF70CFB074604E040
:1024A000FFF708FBC11B414518D8D5F890008007FD
:1024B000F6D41EB1A86D20F08050A8652078800663
:1024C00029D5A0690028D5F8980013D040F0010064
:1024D000C5F89800FFF7EEFA064606E077E000BF81
:1024E000FFF7E8FA801B022877D8D5F89800800714
:1024F000F6D510E020F00100C5F89800FFF7DAFAF1
:10250000064604E0FFF7D6FA801B022865D8D5F806
:1025100098008007F6D4E069F0B3A968C1F381019F
:10252000032961D00228286820F0807028600BD031
:10253000E86820F00300E860E86847490840E86080
:10254000FFF7B8FA04464BE0FFF7B4FA064604E09A
:10255000FFF7B0FA801B02283FD828688001F7D423
:10256000F4E908016FF00F0202EB01110843218A20
:102570005204490802EB4151A26841EA0221084392
:10258000217D4FF07E42490802EB41610843217BE7
:1025900040EAC160E96800E062E0304A1140084367
:1025A000E860286840F080702860E86840F080703B
:1025B000E860FFF77FFA044605E000BFFFF77AFA0C
:1025C000001B022809D828688001F7D548E004E0FC
:1025D000FFF770FA001B022802D90320BDE8F88338
:1025E00028688001F4D43BE00128F7D0E868226A2B
:1025F00000F00301914226D1616A00F0F002090166
:10260000103991421FD1A26A00F4FE41B1EB022FB2
:1026100019D194F82C2000F07841B1EBC26F12D19F
:10262000218E00F4C00249084905A1F5001191422C
:1026300009D194F8341000F0C06049084906A1F1AE
:10264000007181420CD00120C8E700000010024058
:102650005000002000700040FFFFEEFE0C809F0144
:102660000020BBE710B500680B4641680D480140EB
:10267000080CD870C1F304245C7001F03F049C7016
:10268000C1F34231197052B901F054FED870587834
:1026900001F050FE5870987801F04CFE98700020C0
:1026A00010BD00003FFFFF0010B50B4601688968B0
:1026B000596001680969C1F30E01996000680168F9
:1026C0000D480140C1F305401870C1F306245C7049
:1026D00001F07F049C70890DD97052B901F02AFE77
:1026E0001870587801F026FE5870987801F022FE94
:1026F0009870002010BD00007F7F7F0070B504003F
:102700004FF0010040D094F8250028B9002084F84B
:102710002400204600F03CF8022084F825002168BF
:10272000CA204862216853204862204601F018FE02
:1027300010BB20688169154A114081612168886950
:102740006268A369104322691A4310438861218992
:10275000E06840EA014021680861204601F025FE5A
:1027600050B9D4E90721114322686369956925F0BE
:1027700060452B43194391612268FF215162002873
:1027800002D1012184F8251070BD0000BFFF8FFB2E
:1027900010B592B0044644216846FDF7DAFF1049AF
:1027A0002068884219D14FF40020009080121090C8
:1027B0006846FFF7A5FA08B1FEF7C9FF094850F8C7
:1027C000901F41F4004140F83819016841F48061DC
:1027D0000160006800F48060119012B010BD00002C
:1027E000002800400010024070B5044690F8240014
:1027F0000B4601281BD0012684F82460022084F8AF
:102800002500B2B19878D97840EA0145587819780E
:10281000000240EA413005432168CA20486221682D
:1028200053204862204601F09BFDD0B120E00220F9
:1028300070BD5878C10603D500F0EF000A3058701B
:10284000D87801F080FD0504587801F07CFD45EA58
:102850000025987801F077FD0543187845EA403562
:10286000DAE70848054020684560204601F09DFDF4
:102870002268FF21516208B984F82560002184F89C
:10288000241070BD3FFFFF002DE9F041044690F891
:10289000240090460D46012811D0012784F82470A9
:1028A000022084F825002168CA204862216853204C
:1028B0004862204601F054FD002618B129E00220AC
:1028C000BDE8F0812068B8F1000F80694FEA4060F0
:1028D00024D0002800DBEE70A8782978EA7840EA56
:1028E00001406978090241EA8251084318490840C9
:1028F000216808602068816921F480218161D5E91F
:102900000301084321688A6910438861204601F069
:102910004CFD2268FF215162A0B115E0002800DBC8
:10292000EE70287801F00FFD0304687801F00BFDCC
:1029300043EA0023A87801F006FD0343E87843EA60
:102940008050D3E784F8257084F82460B8E700004D
:102950007F7F7F0070B504460068C16821F02001C8
:10296000C160FFF7A7F805464FF47A7607E000BF8D
:10297000FFF7A0F8401BB04201D9032070BD2068CA
:10298000C0688006F4D5002070BD7047704770475E
:102990007047704770470000F0B590F83C20012A5E
:1029A0003AD0012580F83C50022280F83D2003688F
:1029B0005A689C68194E1A4FB34201D0BB4204D1E9
:1029C00022F4700C4A6842EA0C02DFF858C002EAAE
:1029D0000C02D1F800C04CEA020CC3F804C0026833
:1029E000B2420DD0B2F1804F0AD00F4B9A4207D0BD
:1029F0000E4B9A4204D0BA4202D00D4B9A4204D1F7
:102A0000896824F080031943916080F83D500021CB
:102A100080F83C100846F0BD0220F0BD002C0140BB
:102A2000003401408FFFFFFD00040040000800401B
:102A300000400140704710B5040003D094F83D00F9
:102A400010B107E0012010BD002084F83C002046B2
:102A500000F022F8022084F83D00211D206801F0DA
:102A6000E7FD012084F8480084F83E0084F83F0028
:102A700084F8400084F8410084F8420084F8430060
:102A800084F8440084F8450084F8460084F8470040
:102A900084F83D00002010BD08B50068B0F1804FFB
:102AA00012D10A48816D41F001018165806D0022DB
:102AB00000F00100009005211C20FFF789F8BDE817
:102AC00008401C20FFF776B808BD00000010024047
:102AD00090F83D10012901D001207047022180F8B3
:102AE0003D100168CA6842F00102CA6000681049DE
:102AF00088420ED0B0F1804F0BD00E49884208D0EA
:102B00000D49884205D00D49884202D00C498842BF
:102B100007D181680B4A1140062906D0B1F5803FE4
:102B200003D0016841F001010160002070470000FE
:102B3000002C014000040040000800400034014027
:102B4000004001400700010070B5044690F83C00C9
:102B50000025012814D0012684F83C60022084F866
:102B60003D0022689068364B184020F47F4090600A
:102B7000086870282ED010DC10F00F0F03D021E071
:102B80004FF0020070BD4FEA2012072A1AD2DFE888
:102B900002F0525252524A3840002A4BC21A98420E
:102BA00049D009DCB0F5805F0DD0B0F5005F1CD0D6
:102BB000B0F1101F06D13EE0102A3CD0202A3AD0B6
:102BC000502A38D0012584F83D60002084F83C006C
:102BD000284670BDCB68D1E90121206801F08DFD48
:102BE0002068816841F0770109E0CB68D1E90121D3
:102BF000206801F082FD2068816841F48041816095
:102C0000E1E7CA684968206801F022FF5021206886
:102C100006E0CA684968206801F02BFF602120683F
:102C200001F076FDCFE7CA684968206801F010FF1F
:102C300040212068F4E7226801461046F0E70000D2
:102C400088FFCEFF20001000704770B50446006872
:102C500001694FF00005C943890715D4C168C9430C
:102C6000890711D4E91E016101202077206880695D
:102C70008007204602D0FFF7E7FF04E000F00AF9E2
:102C8000204600F0CCF9257720680169C94349073F
:102C900017D4C168C943490713D46FF00401016117
:102CA000022020772068806910F4407F204602D0FF
:102CB000FFF7CAFF04E000F0EDF8204600F0AFF99E
:102CC000257720680169C943090716D4C168C9433B
:102CD000090712D46FF008010161042020772068F1
:102CE000C0698007204602D0FFF7AEFF04E000F085
:102CF000D1F8204600F093F9257720680169C9438F
:102D0000C90617D4C168C943C90613D46FF01001AE
:102D10000161082020772068C06910F4407F2046B8
:102D200002D0FFF791FF04E000F0B4F8204600F075
:102D300076F9257720680169C943C90708D1C168B8
:102D4000C943C90704D1891E0161204600F0E6F994
:102D500020680169C943090609D4C168C943090645
:102D600005D46FF0800101612046FFF70FFE206857
:102D70000169C943C90509D4C168C943090605D415
:102D80006FF4807101612046FFF7FFFD2068016943
:102D9000C943490609D4C168C943490605D46FF03F
:102DA00040010161204600F0D9F920680169C9435A
:102DB000890609D4C168C943890605D46FF020018A
:102DC00001612046FFF7E3FD20680169C943C9029C
:102DD00009D4C168C943C90205D46FF480110161E7
:102DE0002046FFF7D6FD20680169C943890209D44E
:102DF000C168C943890205D46FF4001101612046FE
:102E0000FFF7C6FD20680169C943490209D4C168BA
:102E1000C943490205D46FF4800101612046FFF7E0
:102E2000B9FD20680169C94309020BD4C168C943CF
:102E3000090207D46FF4000101612046BDE870402B
:102E4000FFF7F8BD70BD000010B586B00446142130
:102E50006846FDF77EFC2068B0F1804F15D10C4824
:102E6000C16C41F00101C164C06C694600F0010011
:102E70000590022000900190002002900390012014
:102E800004904FF09040FEF7E7FC06B010BD000044
:102E900000100240704770B5044690F83C000026D0
:102EA0000D4601280BD0012084F83C000C2A4AD0A2
:102EB00007DC82B1042A20D0082A06D131E00220A2
:102EC00070BD102A53D0142A63D00126002084F844
:102ED0003C00304670BD206801F024FC2068816908
:102EE00041F0080181612068816921F0040181615C
:102EF000206881692A69114311E0206801F060FCB3
:102F00002068816941F4006181612068816921F450
:102F100080618161206881692A6941EA02218161B9
:102F2000D4E7206801F094FC2068C16941F00801F1
:102F3000C1612068C16921F00401C1612068C169D3
:102F40002A69114311E0206801F0CAFC2068C169B8
:102F500041F40061C1612068C16921F48061C161EF
:102F60002068C1692A6941EA0221C161AEE720688F
:102F700001F0FEFC2068016D41F008010165206848
:102F8000016D21F0040101652068016D2A6911437A
:102F900011E0206801F024FD2068016D41F400611A
:102FA00001652068016D21F4806101652068016D73
:102FB0002A6941EA0221016588E710B5040003D0BF
:102FC00094F83D0010B107E0012010BD002084F806
:102FD0003C00204600F022F8022084F83D00211D2C
:102FE000206801F025FB012084F8480084F83E00A9
:102FF00084F83F0084F8400084F8410084F84200DF
:1030000084F8430084F8440084F8450084F84600BE
:1030100084F8470084F83D00002010BD70477047D9
:1030200030B50446022269B1042912D0082917D00C
:103030000C291CD0102921D094F84300012824D059
:10304000012030BD94F83E000128F9D184F83E20DB
:103050001DE094F83F000128F2D184F83F2016E0EB
:1030600094F840000128EBD184F840200FE094F858
:1030700041000128E4D184F8412008E094F842009E
:103080000128DDD184F8422001E084F843200122A8
:10309000206801F025FB194B20681949194A98420C
:1030A00009D0884207D0904205D0174DA84202D0DF
:1030B000164DA84203D1456C45F40045456420688F
:1030C00098420CD0B0F1804F09D0114B984206D0F5
:1030D000104B984203D0884201D0904207D18168BA
:1030E0000D4A1140062906D0B1F5803F03D0016892
:1030F00041F001010160002030BD0000002C0140C2
:1031000000340140004001400044014000480140BB
:1031100000040040000800400700010070B50546AB
:1031200000680D490B4C884201D1FEF7C9FC2868A4
:10313000B0F1804F0DD107480178002041B161887E
:1031400042F20F72491C89B26180914201D3207012
:10315000608070BD06000020002C0140704790F890
:103160008010012918D0012180F880102421C0F896
:10317000841050F8641B0A680B6823F001030B608D
:1031800022F000510022026050F8643C19602021B6
:1031900001620277104670470220704770477047FF
:1031A00070B5044690F8800001281DD0012084F8F5
:1031B00080002420C4F8840020680568026822F09A
:1031C000010202602068826822F060620A43826025
:1031D000204601F061FC206805602020C4F88400CE
:1031E000002084F8800070BD022070BD70B50446D8
:1031F00090F8800001281DD0012084F88000242050
:10320000C4F8840020680568026822F001020260A8
:103210002068826822F060420A438260204601F002
:103220003BFC206805602020C4F88400002084F85E
:10323000800070BD022070BD70477047704700006D
:103240002DE9F04103680446D86919689A6840F688
:103250000F0528424FF0000509D186067ED501F002
:10326000200602F080573E4378D0216F27E1A94E17
:10327000A94F16400F40374370D0C70709D0CF057C
:1032800007D501271F62D4F88C3043F00103C4F83E
:103290008C3083070AD5D30708D0276802233B6206
:1032A000D4F88C3043F00403C4F88C3043070AD5BB
:1032B000D30708D0276804233B62D4F88C3043F04E
:1032C0000203C4F88C3003070CD501F0200333430C
:1032D00008D0266808233362D4F88C3043F0080302
:1032E000C4F88C3003050BD54B0109D526684FF483
:1032F00000633362D4F88C3043F02003C4F88C3080
:10330000D4F88C30002B3AD0800609D501F020008B
:1033100002F08051084303D0216F09B1204688474D
:10332000D4F88C0021688968490602D410F0280F6F
:1033300027D0204601F070FC2068806840061BD52D
:103340002068083050E8001F21F0400140E80012DA
:10335000002AF5D1E06F78B1704900E017E0816391
:10336000E06FFEF72BFA002809D0E06F816B00E0D8
:103370002046BDE8F04108472046FFF75FFFBDE863
:10338000F0812046FFF75AFFC4F88C50F7E7E76E4C
:103390002026012F7ED1C7067CD5CF067AD51020F6
:1033A000186220688068400642D5E16F086840686E
:1033B0000004000CE3D0B4F85C208242DFD9A4F80A
:1033C0005E000868006880062BD4206850E8001F63
:1033D00021F4807140E80012002AF6D120680830FC
:1033E00050E8001F21F0010140E80012002AF5D149
:1033F0002068083050E8001F21F0400140E800122A
:10340000002AF5D1C4F88860E566216851E8000F0C
:1034100020F0100041E80002002AF6D1E06FFEF72C
:1034200098F9B4F85C00B4F85E10401A81B22CE050
:10343000B4F85C00B4F85E10401A81B2B4F85E00D3
:1034400000289CD000299AD0226852E8000F20F46E
:10345000907042E80003002BF6D12E4BDB4320682E
:10346000083050E8002F1A4040E80027002FF6D11E
:10347000C4F88860E5662567226852E8000F20F0EE
:10348000100042E80003002BF6D12046FFF786FE2D
:1034900075E7FFE7C70209D5570207D54FF480103B
:1034A00018622046BDE8F041FFF7C7BE03060AD503
:1034B00001F0800302F40002134304D0616F00297D
:1034C0007FF456AF5BE7420611D54A060FD520467A
:1034D000016851E8002F22F0400241E80023002B50
:1034E000F6D1C0F88460456700F05CF947E7020256
:1034F00006D54A0004D52046BDE8F041FFF79CBE42
:10350000C001C5D50029C3DA2046BDE8F041FFF768
:1035100046BE00000100001020010004054C000818
:1035200010B5040003D0D4F8840010B107E00120E6
:1035300010BD002084F88000204600F027F82420E9
:10354000C4F884002068016821F001010160204670
:1035500001F0A4FD0128EBD0A06A10B1204601F0D3
:10356000BDFA2068416821F490414160206881687B
:1035700021F02A0181602068016841F001010160A9
:103580002046BDE8104001F00DBB000010B598B01A
:103590000446142111A8FDF7DCF844216846FDF724
:1035A000D8F81B492068884230D101200024CDE999
:1035B00000046846FEF7A4FB08B1FEF7C8F81548FA
:1035C000016E41F480410166016E01F48041169163
:1035D000C16C41F00101C164C06C11A900F001008F
:1035E00016904FF4C06011900220CDE9120407201C
:1035F000CDE914404FF09040FEF72EF9002205214E
:103600002520FEF7E5FA2520FEF7D4FA18B010BD04
:10361000003801400010024030B4D0F88830202B30
:1036200020D1E1B1DAB190F88030012B1AD001231A
:1036300080F880300023C3660B4C0368A3420BD094
:103640005B681B0208D5046854E8003F43F08063C0
:1036500044E80035002DF6D130BC01F059BE012000
:1036600030BC70470220FBE70080004010B588B0F6
:103670005020EFF3118480F31188BFF34F8FBFF315
:103680006F8F124812A190ED040B8DED000B90EDA1
:10369000020B02A853EC102BFCF7F6FE1048007842
:1036A0003F2809D102A8FDF703F882B24FF47A73DC
:1036B00002A90C4800F018F8012209490948FFF74F
:1036C000ABFF84F3118808B010BD0000100000208B
:1036D000583A25332E31662C593A25332E3166005F
:1036E000380000203C0100202DE9F8430446D0F8C2
:1036F00084001F4616460D46202851D1DDB1D6B1B3
:1037000094F8800001284BD0012084F880004FF00D
:103710000008C4F88C802120C4F884001834FEF717
:10372000C9F9A6878146E68754F8100C183CB0F515
:10373000805F03D004E00120BDE8F883206920B158
:103740002E46002584F8808010E00026FAE78021CC
:10375000204601F069FEB8B9C6B116F8010B216820
:103760008862B4F85600401EA4F85600B4F856001B
:103770004B464FF0000200970028E8D14FF040017F
:10378000204601F051FE30B10320D5E735F8020B99
:10379000C0F30800E3E72020C4F884000020CBE752
:1037A0000220C9E77047FEE700B585B014216846DE
:1037B000FCF7CFFFC0200090012001900290022072
:1037C000039069460248FEF747F805B000BD0000C7
:1037D0000004004870B50824002500F055FE13E0F1
:1037E0006806050E002000F037FE142001F0B6FE3A
:1037F000142001F0B3FE012000F02EFE142001F091
:10380000ADFE00F035FE0543641EE4B2E8D20020B0
:1038100000F022FE142001F0A1FE00F057FE284621
:1038200070BD70B50446082516E000F015FE1420A2
:1038300001F094FE04F0800000F03CFE142001F042
:103840008DFE6006040E142001F088FE012000F0B9
:1038500003FE142001F082FE6D1EEDB24FF0000059
:10386000E3D200F0F9FDBDE87040142001F076BE0F
:1038700010B5012000F01EFE142001F06FFE0120A3
:1038800000F0EAFD142001F069FE002000F012FEB5
:10389000142001F063FE002000F0DEFDBDE81040C2
:1038A000142001F05BBE10B5002000F0D5FD1420FF
:1038B00001F054FE002000F0FDFD142001F04EFE4A
:1038C000012000F0C9FD142001F048FE012000F0A5
:1038D000F1FDBDE81040142001F040BE10B50524F4
:1038E00000F0D2FD142001F039FE012000F0B4FDFB
:1038F000142001F033FE05E0641EA4B2142001F090
:103900002DFE6CB100F0B4FD0028F5D100F0DEFD15
:10391000002000F0A1FD142001F020FE002010BDC9
:1039200000F0D4FDFFF7BFFF012010BD10B5044625
:10393000FFF79EFFA020FFF774FFFFF7CFFF2046A1
:10394000FFF76FFFFFF7CAFFFFF792FFA120FFF716
:1039500068FFFFF7C3FFFFF73DFF0446FFF7BEFF19
:10396000FFF7A1FF204610BD70B50D460446FFF7D6
:103970007FFFA020FFF755FFFFF7B0FF2046FFF7BE
:1039800050FFFFF7ABFF2846FFF74BFFFFF7A6FFFF
:10399000BDE87040FFF787BF02F096FB01F0E6FE3E
:1039A00001F00EFE02F0B0FB052002F0F5F8F3E79F
:1039B00000B585B014216846FCF7CBFE4FF6FF70CA
:1039C000009000200321CDE90201019069460248E0
:1039D000FDF742FF05B000BD0008004800B585B006
:1039E00014216846FCF7B5FE4FF6FF7000900120E9
:1039F0000190032003900020029069460248FDF7E1
:103A00002BFF05B000BD00000008004830B587B0AE
:103A100014216846FCF79DFE1E48C16C41F004016C
:103A2000C164C16C01F004010591C16C41F0010158
:103A3000C164C16C01F001010591C16C41F002014A
:103A4000C164C06C012500F0020005904FF448707D
:103A5000CDE9000500240394694602940E48FDF761
:103A6000FBFE280203940090CDE901544FF09044EE
:103A700069462046FDF7F0FEFFF7B0FFA06940F46D
:103A80008070A06104481830016841F40871016039
:103A900007B030BD0010024000040048203AD2B206
:103AA000034B02EB420203EB021200F019B80000D4
:103AB000E66F0008F0B50E460746002540F23F14B9
:103AC00007E021463846FFF7E9FF103C6D1CA4B221
:103AD000761C3278002A01D0142DF2D3F0BD0000FC
:103AE0002DE9F04791468A460026044600F086F804
:103AF000DFF84080012700BF00F0C0F85FF000054C
:103B000039F8160007FA05F10842404601D140880D
:103B100000E0008800F086F86D1C102DF0D3641CC6
:103B2000E4B25146204600F069F8761C182EE3D323
:103B3000BDE8F0873000002010B5FFF767FF0020D8
:103B400000F014F8084CA080A088A0F5024130399C
:103B500006D000F0EEFA002000F008F8A08010BDBA
:103B600000F05EFAF7E700003000002070B51D4954
:103B70000A6842F400720A600A6842F480720A60BD
:103B8000184C103C226842F020022260164A106055
:103B9000086840F02000086000BF00BF00BF206838
:103BA00040F020002060206840F480702060FFF723
:103BB000FFFE4FF09041886A40F48070886200BF39
:103BC00000BF00BF0848001F006885B2886940F444
:103BD00080708861FFF702FF206840F40070206069
:103BE000284670BD280400481408004801B5BDF8F7
:103BF00000000149488008BD3000002010B50C4687
:103C00000146202000F068F82146BDE81040212040
:103C100000F062B801B5BDF800000149088008BD98
:103C200030000020134A116841F4007111601149FD
:103C300010390B6843F480730B600B6843F020036A
:103C40000B600D4B1860106840F02000106000BF42
:103C500000BF00BF086840F020000860086840F41A
:103C60008070086000BF00BF00BF086840F40070AB
:103C70000860704728040048140800481449086880
:103C800040F400700860086840F4807008601048D4
:103C90001038026842F0200202600E4B22221A60A5
:103CA0000A6842F020020A6000BF00BF00BF01683E
:103CB00041F020010160016841F48071016000BFA2
:103CC00000BF00BF016841F400710160704700004F
:103CD0002804004814080048184B10B51A6842F42C
:103CE00000721A601A6842F480721A60134A103A1D
:103CF000146844F020041460114C2060186840F0EF
:103D00002000186000BF00BF00BF106840F0200016
:103D10001060106840F4807010602160186840F0F6
:103D20002000186000BF00BF00BF106840F02000F6
:103D30001060106840F48070106010BD28040048C6
:103D40001408004801F098FD02F04EF9FAE701F07E
:103D5000CFFE642001F020FFF9E700002DE9F04FCD
:103D600087B014216846FCF7F4FC4448C16C41F06C
:103D70000401C164C16C01F004010591C16C41F002
:103D80002001C164C16C01F020010591C16C41F0BA
:103D90000101C164C16C01F001010591C16C41F0E8
:103DA0000201C164C16C01F002010591C16C41F0D6
:103DB0000801C164C06CDFF8C88000F008004EF64E
:103DC000FF740590002221464046FDF76EFE4FF439
:103DD00080764FF09049002231464846FDF765FE57
:103DE000DFF8A0A0002204215046FDF75EFEDFF8B8
:103DF00098B04FF44877002239465846FDF755FEF3
:103E00000125CDE90045002402946946404603940B
:103E1000FDF722FDCDE90054694648460295FDF7BD
:103E20001BFD07208DE8310069465846FDF714FD5B
:103E30000096CDE90154694648460394FDF70CFD10
:103E4000280300900320CDE9010469464046FDF7B0
:103E500003FD04200090CDE90154694650460394C7
:103E6000FDF7FAFC0097CDE90154694658460394E2
:103E7000FDF7F2FC07B0BDE8F08F00000010024033
:103E800000080048000C00480004004810B586B047
:103E900014216846FCF75DFC204800241E49059467
:103EA000C0E900147F218160FF21C0E903144FF0B5
:103EB00080414461C0E906410462FEF71FFC08B17D
:103EC00072B6FEE712208DF8000047208DF8010041
:103ED0008DF8024001940394012269460F4804942E
:103EE000FEF7D2FC08B172B6FEE706208DF814008A
:103EF00003208DF8150025208DF8160023208DF85D
:103F00001700012205A90548FEF76EFC002801D024
:103F100072B6FEE706B010BD00280040C8000020C1
:103F200010B58EB000240794089409940A940B9459
:103F30000C941C2168460D94FCF70BFC1D484FF0B7
:103F400080410160A721C0E9011440F2F311C0E9EA
:103F500003148461FEF76FFD08B172B6FEE74FF4FB
:103F60008050079007A91348FEF7EEFD08B172B61E
:103F7000FEE71048FFF721F808B172B6FEE70B9490
:103F80000BA90C480D94FEF707FD08B172B6FEE7C9
:103F90006020CDE900040294042269460548049497
:103FA000FEF779FF08B172B6FEE70248FEF74CFF54
:103FB0000EB010BDF0000020174810B51549016083
:103FC0004FF416514160002181600C22C160C0E9AC
:103FD00004128161C161016241628162FFF7A0FA4E
:103FE00008B172B6FEE700210B48FFF7FFF808B1F1
:103FF00072B6FEE700210848FFF7D2F808B172B6A2
:10400000FEE70548FFF7ABF8002801D072B6FEE7DF
:1040100010BD0000003801403C010020FEE7FEE733
:1040200030B501210020FFF757FE4FF47A70FDF7FD
:1040300080FB00210120FFF74FFE41F2907110201C
:10404000FFF74AFE4FF41C516020FFF745FE0121A7
:104050006120FFF741FE02214620FFF73DFE48F2B6
:1040600010011320FFF738FE48F2FE011220FFF77F
:1040700033FE4FF4A0610220FFF72EFE41F2300123
:104080000320FFF729FE40F2033421463020FFF7DA
:1040900023FE21463120FFF71FFE21463220FFF785
:1040A0001BFEE51E29463320FFF716FE03213420B0
:1040B000FFF712FE21463520FFF70EFE14213620B1
:1040C000FFF70AFE21463720FFF706FE214638207B
:1040D000FFF702FE21463920FFF7FEFD29463A2070
:1040E000FFF7FAFD03213B20FFF7F6FD21463C20B8
:1040F000FFF7F2FD4FF4A0513D20FFF7EDFD4FF427
:1041000000719220FFF7E8FD21469320FFF7E4FDC0
:1041100040F60D019020FFF7DFFD41F2180103206A
:10412000FFF7DAFDBDE8304040F273110720FFF7DA
:10413000D3BD10B543F20801E320FFF7CDFD1221F6
:10414000E720FFF7C9FD41F23121EF20FFF7C4FD61
:1041500000210120FFF7C0FD4FF4E0610220FFF7CE
:10416000BBFD41F230010320FFF7B6FD0021042022
:10417000FFF7B2FD40F207210820FFF7ADFD002157
:104180000920FFF7A9FD00210A20FFF7A5FD002166
:104190000C20FFF7A1FD00210D20FFF79DFD002160
:1041A0000F20FFF799FD00211020FFF795FD072153
:1041B0001120FFF791FD00211220FFF78DFD002156
:1041C0001320FFF789FDC820FDF734FB41F2906111
:1041D0001020FFF781FD40F227211120FFF77CFD21
:1041E0003220FDF727FB1D211220FFF775FD32203D
:1041F000FDF720FB4FF400611320FFF76DFD142144
:104200002920FFF769FD0B212B20FFF765FD3220E8
:10421000FDF710FB00212020FFF75EFD002121208B
:10422000FFF75AFD07213020FFF756FD40F20771D6
:104230003120FFF751FD06213220FFF74DFD40F2FE
:1042400004713520FFF748FD41F604713620FFF771
:1042500043FD04213720FFF73FFD00213820FFF701
:104260003BFD40F206713920FFF736FD40F2017147
:104270003C20FFF731FD0F213D20FFF72DFD0021F0
:104280005020FFF729FDEF215120FFF725FD0021E8
:104290005220FFF721FD40F23F115320FFF71CFD94
:1042A0004FF41C516020FFF717FD01216120FFF73B
:1042B00013FD00216A20FFF70FFD00218020FFF78A
:1042C0000BFD00218120FFF707FD00218220FFF771
:1042D00003FD00218320FFF7FFFC00218420FFF76E
:1042E000FBFC00218520FFF7F7FC10219020FFF751
:1042F000F3FC00219220FFF7EFFC03219320FFF74E
:10430000EBFC4FF488719520FFF7E6FC0021972025
:10431000FFF7E2FC00219820FFF7DEFC41F21801D4
:104320000320FFF7D9FCBDE8104040F273110720CD
:10433000FFF7D2BC010901EB810100F00F0000EB97
:104340004100C0B270470022014602E00A39C9B2FA
:10435000521C0A29FAD2100741EA10607047000087
:104360002DE9F041044600680025C168490619D4CA
:10437000C16841F08001C160FDF79CFB06464FF427
:104380007A78032708E000BFFDF794FB801B4045C7
:1043900002D9032584F825702068C068400601D43E
:1043A000032DF1D12846BDE8F08170B504460068C0
:1043B0000025C16821F08001C160206881694FF04B
:1043C0000306890607D42046FEF7C4FA98B184F89C
:1043D000256003250FE0816921F0200181612046DD
:1043E000FEF7B8FA10B184F82560032520688169CA
:1043F00041F020018161284670BD0000ADF1380D0B
:1044000001F062FE00220DA90C48FEF72BF90022F4
:1044100001A90A48FEF748F99DF8060000909DF8AA
:1044200005309DF8042006A106A8FCF72DF806A982
:10443000D820FFF73FFB01F067FEE1E7C80000204E
:1044400020202020253032643A253032643A25304D
:10445000326420202000000008B1044801E0034835
:104460001030016841F040010160704718040048B5
:1044700010B580210348FDF713FB012800D0002070
:1044800010BD00000004004800B585B01421684646
:10449000FCF75FF98020009000200190012002903D
:1044A0000220039069460248FDF7D6F905B000BD29
:1044B0000004004808B1044801E0034810300168D6
:1044C00041F08001016070471804004800B585B0D4
:1044D00014216846FCF73DF98020009011200190DE
:1044E000002002900220039069460248FDF7B4F9CB
:1044F00005B000BD0004004894B01A4C01F0E4FD82
:10450000142219496846FCF7F2F80021684601F0C8
:104510004FFB1549A0601422143105A8FCF7E7F8F9
:10452000002105A801F044FB0F4920611422283125
:104530000AA8FCF7DCF800210AA801F039FB0A49B7
:10454000E06014223C310FA8FCF7D1F800210FA83D
:1045500001F02EFB6061606801F054FE01F0D4FDB3
:10456000CCE7000038000020CC81000810B55020B6
:1045700080F31188BFF34F8FBFF36F8F01F0A8FF57
:1045800018B104494FF080500860002080F3118872
:1045900010BD000004ED00E000B593B0382168467E
:1045A000FCF7D7F814210EA8FCF7D3F80020FDF78C
:1045B00041FB0A2000904FF48070039040200121BD
:1045C000CDE904010220CDE908011521CDE90A1049
:1045D00007900C900D906846FDF73EFE08B172B64C
:1045E000FEE70F200E9003200F90002010901190F6
:1045F000129004210EA8FDF7C7FC002801D072B666
:10460000FEE713B000BD00000248016841F47001EC
:104610000160704788ED00E00148FEF716BB00001E
:10462000CC0100200148FEF710BB0000F000002084
:104630002DE9F0430268234B234D244E244C4FF0C8
:104640008049984207D0484505D0A84203D0B042DF
:1046500001D0A04203D122F070074A683A431D4FAF
:10466000DFF874C0DFF8748098420DD048450BD055
:10467000A84209D0B04207D0A04205D0B84203D02A
:10468000604501D0404503D122F44075CA682A43F1
:104690004D6922F080022A4302608A68C2620A6879
:1046A0008262984207D0A04205D0B84203D060454C
:1046B00001D0404501D10969016301214161BDE893
:1046C000F0830000002C014000040040000800407E
:1046D00000340140004001400044014000480140D6
:1046E00010B501F01F030121046A99408C43046254
:1046F000016A9A401143016210BD10B5846842EA14
:10470000032224F47F440A432243826010BD000048
:104710008268034B1A400A4342F0070181607047E8
:104720008FFFCFFF2DE9F043026A22F001020262FF
:10473000056A436882691C4C25F0020522400C681A
:1047400022F0030214438A68194E2A43174D194F69
:10475000DFF864C0DFF86490A84207D0B04205D00B
:10476000B84203D0604501D0484506D122F0080880
:10477000CA6842EA080222F00402A84207D0B04206
:1047800005D0B84203D0604501D0484505D14D69F8
:1047900023F440731D438B692B4343608461496854
:1047A00041630262BDE8F0838FFFFEFF002C0140F1
:1047B00000340140004001400044014000480140F5
:1047C000F0B5026A22F010020262056A426883694B
:1047D000194C1B4E23400C6823F4407343EA042415
:1047E00025F020038D6843EA0513144DA84201D03B
:1047F000B04206D1CF6823F0800343EA071323F0C9
:104800004003A8420AD0B04208D00E4DA84205D0BD
:104810000D4DA84202D00D4DA84207D14D6922F49A
:10482000406242EA85028D6942EA85024260846103
:10483000496881630362F0BDFF8FFFFE002C0140D9
:104840000034014000400140004401400048014064
:10485000F0B5026A22F480720262056A4368C26996
:10486000194C1B4E22400C6822F00302144325F41D
:1048700000728D6842EA0522144DA84201D0B04270
:1048800006D1CF6822F4006242EA072222F4806255
:10489000A8420AD0B04208D00E4DA84205D00E4D15
:1048A000A84202D00D4DA84207D14D6923F44053D0
:1048B00043EA05138D6943EA05134360C4614968FF
:1048C000C1630262F0BD00008FFFFEFF002C0140BB
:1048D00000340140004001400044014000480140D4
:1048E000F0B5026A22F480520262056A4268C36926
:1048F000194C1B4E23400C6823F4407343EA0424F4
:1049000025F400538D6843EA0533144DA84201D0C5
:10491000B04206D1CF6823F4004343EA073323F4BF
:104920008043A8420AD0B04208D00E4DA84205D01C
:104930000D4DA84202D00D4DA84207D14D6922F479
:10494000404242EA85128D6942EA85124260C461A2
:10495000496801640362F0BDFF8FFFFE002C014037
:104960000034014000400140004401400048014043
:1049700030B5026A22F480320262046A4268036D32
:10498000114D2B400D681D4324F400330C8943EA7C
:1049900004430E4CA0420BD00D4CA04208D00D4C4D
:1049A000A04205D00C4CA04202D00C4CA04204D135
:1049B0004C6922F4803242EA04224260056549686B
:1049C0008164036230BD00008FFFFEFF002C0140B8
:1049D00000340140004001400044014000480140D3
:1049E00030B5026A22F480120262046A4268036DE2
:1049F000114D24F400142B400D6843EA05230D8962
:104A000044EA05540D4DA8420BD00D4DA84208D0E4
:104A10000C4DA84205D00C4DA84202D00B4DA84227
:104A200004D14D6922F4802242EA85224260036566
:104A30004968C164046230BDFF8FFFFE002C014055
:104A40000034014000400140004401400048014062
:104A500010B5036A046A24F001040462846924F036
:104A6000F00444EA021423F00A020A438461026259
:104A700010BD10B5036A23F0100303628369046A52
:104A800023F4704343EA023224F0A00343EA011105
:104A90008261016210BD000030B5416EB9B102689B
:104AA00091689268C1F342610B4B520F9C5CE50028
:104AB00003F10804A25CB5FBF2F2A0F86A205A5C8C
:104AC000615CD200B2FBF1F1A0F8681030BD0121A9
:104AD000A0F86A10F8E700003482000890F8281067
:104AE000C90706D001684A68C36A22F400321A4333
:104AF0004A6090F82810890706D501684A68036B58
:104B000022F480321A434A6090F82810490706D5EB
:104B100001684A68436B22F480221A434A6090F885
:104B20002810090706D501684A68836B22F4004201
:104B30001A434A6090F82810C90606D501688A68A9
:104B4000C36B22F480521A438A6090F828108906B9
:104B500006D501688A68036C22F400521A438A6001
:104B600090F82810490611D501684A68436C22F470
:104B700080121A434A60416CB1F5801F06D101686A
:104B80004A68836C22F4C0021A434A6090F82810E5
:104B9000090606D501684A68C06C22F40022024367
:104BA0004A607047F8B500260446C0F88C60FCF7F0
:104BB00081FF0546206800686FF07E47000708D532
:104BC0002B4600224FF400112046009700F02CFCE9
:104BD00060B92068006840070AD52B4600224FF4D0
:104BE00080012046009700F01FFC08B10320F8BDAB
:104BF0002020C4F88400C4F8880044F86C6F0020BA
:104C00002675F8BD10B5806A0021A0F85E10A0F8E6
:104C10005610FEF713FB10BD10B5026852E8001FD6
:104C200021F4907142E80013002BF6D10E4B02687C
:104C3000083252E8001F194042E80014002CF6D157
:104C4000C16E012908D1016851E8002F22F010023D
:104C500041E80023002BF6D12021C0F88810002164
:104C6000C166016710BD0000FEFFFFEF10B5B0F890
:104C70006020D0F888300168222B04D0886940F089
:104C80000800886110BD496A836D11401980816DEB
:104C9000891C8165B0F85E10491EA0F85E10B0F85E
:104CA0005E100029EED1026852E8001F21F49071D5
:104CB00042E80013002BF6D10168083151E8002FBB
:104CC00022F0010241E80023002BF5D12021C0F899
:104CD000881000210167C26E012A02D0FEF7C6FCCF
:104CE00010BDC166026852E8001F21F0100142E8C1
:104CF0000013002BF6D10168CA69D243D20601D451
:104D000010220A62B0F85C10FEF748FA10BD0000ED
:104D10002DE9F0470446B0F860600068C569D0F836
:104D200000A0D0F80880D4F88810222905D0816925
:104D300041F008018161BDE8F087B4F868704FF078
:104D4000000963E02068406AA16D30400880A06DD2
:104D5000801CA065B4F85E00401EA4F85E002068C8
:104D6000C569690730D0E9070AD05FEACA5107D59B
:104D700001210162D4F88C0040F00100C4F88C00DD
:104D8000A8070BD55FEAC87008D021680220086226
:104D9000D4F88C0040F00400C4F88C0068070BD5F0
:104DA0005FEAC87008D0216804200862D4F88C003B
:104DB00040F00200C4F88C00D4F88C0020B12046EA
:104DC000FEF73CFAC4F88C90B4F85E00F0B92168A4
:104DD00051E8000F20F4807041E80002002AF6D16B
:104DE000264A2068083050E8001F114040E80013B0
:104DF000002BF6D12020C4F88800C4F87090E16E32
:104E00004846012923D02046FEF730FC0FB1A80602
:104E100098D4B4F85E0000288DD0B4F868108142B0
:104E200089D92068083050E8001F21F0805140E8FF
:104E30000012002AF5D112482067206850E8001FB0
:104E400041F0200140E80012002AF6D173E7E06645
:104E5000216851E8000F20F0100041E80002002A0C
:104E6000F6D12068C169C943C90601D41021016285
:104E7000B4F85C102046FEF791F9C7E7FEFFFFEF9C
:104E80006D4C000810B5B0F86020D0F8883001688B
:104E9000222B04D0886940F00800886110BD496A5F
:104EA0001140826D1170816D491C8165B0F85E10F2
:104EB000491EA0F85E10B0F85E100029EED102681D
:104EC00052E8001F21F4907142E80013002BF6D144
:104ED0000168083151E8002F22F0010241E8002367
:104EE000002BF5D12021C0F8881000210167C26E87
:104EF000012A02D0FEF7BAFB10BDC166026852E873
:104F0000001F21F0100142E80013002BF6D10168C8
:104F1000CA69D243D20601D410220A62B0F85C10EA
:104F2000FEF73CF910BD00002DE9F0470446B0F84B
:104F300060600068C569D0F800A0D0F80880D4F897
:104F40008810222905D0816941F008018161BDE8FE
:104F5000F087B4F868704FF0000963E02068406A99
:104F6000A16D30400870A06D401CA065B4F85E00D3
:104F7000401EA4F85E002068C569690730D0E907C3
:104F80000AD05FEACA5107D501210162D4F88C002A
:104F900040F00100C4F88C00A8070BD55FEAC87088
:104FA00008D0216802200862D4F88C0040F0040088
:104FB000C4F88C0068070BD55FEAC87008D0216878
:104FC00004200862D4F88C0040F00200C4F88C0081
:104FD000D4F88C0020B12046FEF730F9C4F88C904C
:104FE000B4F85E00F0B9216851E8000F20F4807039
:104FF00041E80002002AF6D1264A2068083050E82D
:10500000001F114040E80013002BF6D12020C4F807
:105010008800C4F87090E16E4846012923D02046EC
:10502000FEF724FB0FB1A80698D4B4F85E00002860
:105030008DD0B4F86810814289D92068083050E8D2
:10504000001F21F0805140E80012002AF5D11248DB
:105050002067216851E8000F40F0200041E800027D
:10506000002AF6D173E7E066216851E8000F20F0CE
:10507000100041E80002002AF6D12068C169C94346
:10508000C90601D410210162B4F85C102046FEF775
:1050900085F8C7E7FEFFFFEF854E00082DE9F041D8
:1050A0000446016880682269E3691043626900254B
:1050B0001A431043DFF82CC20A688B4B1A40024394
:1050C0000A6020684168E26821F440511143416060
:1050D0002168A069614501D0226A10438A68834B28
:1050E0001A4002438A602068C16A626A21F00F0197
:1050F0001143C1627E4923687E488B420DD1D0F8AE
:10510000880010F0030006D0012855D0022842D0B4
:1051100003283FD152E001203DE077498B420BD17B
:10512000D0F8880010F00C0035D0042833D00828BF
:1051300040D00C282ED141E070498B420BD1D0F8E1
:10514000880010F0300026D0102835D0202831D02B
:1051500030281FD132E06A498B420BD1D0F8880049
:1051600010F0C00017D0402826D0802822D0C028B8
:1051700010D123E063450DD1D0F8880010F44060D1
:1051800009D0B0F5806F17D0B0F5006F12D0B0F530
:10519000406F13D010205B495B4F00264FF4004254
:1051A00063453BD160B1022813D004280BD00828F6
:1051B00072D10DE00220EEE70420ECE70820EAE7D8
:1051C000FCF7F0FF01E0FDF711F8010001D17CE0F0
:1051D0001146606A37F810206768B1FBF2F007EB00
:1051E0004703834270D8B0EB073F6DD800230846D1
:1051F0001946FBF7D1F8090241EA1061020278086A
:10520000101871413A460023FBF7C6F83F4AA0F553
:105210004071914258D82168C86056E0E3694FF662
:10522000EF7893422CD109284ED2DFE800F0050830
:10523000114D0D4D4D4D1000FCF7B4FF01E0FCF792
:10524000C3FF010004D140E0FCF7D0FFF9E71146AD
:10525000606A37F81000B1FBF0F04100606801EBC4
:105260005001B1FBF0F0A0F1100141452CD84FF6F0
:10527000F0710140C0F3420001432068C16024E0A6
:10528000092821D2DFE800F0050912200E20202095
:105290001100FCF787FF02E016E0FCF795FF010024
:1052A00004D112E0FCF7A2FFF9E71146606A37F873
:1052B0001000B1FBF0F1606801EB5001B1FBF0F0C0
:1052C000A0F1100141450AD901250120A4F86A0086
:1052D00024F8680F2846A660E660BDE8F08180B239
:1052E00099E7000000800040F369FFCFFFF4FF1151
:1052F00000380140001002400044004000480040D7
:10530000004C00400024F4001C820008FFFC0F0049
:1053100070B58165A0F85C20A0F85E2000210167CF
:1053200083684FF48055FF24AB4204D10369FBB975
:1053300040F2FF1322E07F26C3B1B3F1805F1AD0A1
:10534000A0F86010C0F88C102223C0F888300368E1
:10535000083353E8004F44F0010443E80046002EB0
:10536000F5D1436EB3F1005F0ED032E0036943B96B
:10537000A0F86040E6E703691BB13F23A0F8603066
:10538000E0E7A0F86060DDE7B0F86830934220D82D
:105390008268AA4201D10269CAB11F4A026780F835
:1053A0008010016941B1026852E8001F41F4807128
:1053B00042E80013002BF6D10168083151E8002FB4
:1053C00042F0805241E80023002BF5D121E0134A3E
:1053D000E4E78268AA4201D102697AB1104A026701
:1053E00080F88010016959B1026852E8001F41F449
:1053F000907142E80013002BF6D10AE0094AEEE76B
:10540000026852E8001F41F0200142E80013002B1F
:10541000F6D1002070BD0000294F0008114D000892
:10542000854E00086D4C00082DE9F0479A46174656
:105430000E4604464FF000094FF02008089D4AE050
:10544000681C48D0FCF736FBA0EB0A00A8422AD81B
:105450004DB32068016849073DD5C069C0430005C8
:1054600039D421684FF400600862206850E8001FBA
:1054700021F4D07140E80012002AF6D120680830EB
:1054800050E8001F21F0010140E80012002AF5D188
:1054900044F8848FC4F80480C4F8088004F8049C9D
:1054A0000320BDE8F087216851E8000F20F4D07098
:1054B00041E80002002AF6D12068083050E8001FB9
:1054C00021F0010140E80012002AF5D144F8848F50
:1054D000C4F80480E2E72068C06936EA000004D01E
:1054E0000020B842ACD00020DBE70120F9E7000043
:1054F0000148FDF7A5BE00003C010020FEE703B413
:1055000001984100009850EAC12018BF04204A0DBC
:1055100018BF40F0010040F2FF72B2EB515F08BFCC
:1055200040F00200012808BF052002B070470907BB
:10553000090E002804DB00F1E02080F80014704719
:1055400000F00F0000F1E02080F8141D70473038A3
:105550000A2801D20120704700207047002100E096
:10556000491C8142FCD3704770B5124D00242DEDCB
:10557000028B9FED118BE0B2FEF7D8F901F0BFFA74
:1055800053EC182B01F036F905EBC402C2E9020115
:105590000A20FCF74FF9A01CC0B2FEF7C7F9291981
:1055A00008760A20FCF746F9641C022CE3DBBDEC0C
:1055B000028B70BD1000002000000000000024409D
:1055C0002DE9F041164C002622466178D57804F189
:1055D0001000022791B101290ED12844AD1C017E93
:1055E0005FFA85F0FEF7C0F9E078401CC0B2E070C9
:1055F000022801D1E6706770BDE8F08100EBC500BC
:105600009FED081B90ED020B53EC112B51EC100B8E
:1056100001F0C4FA01F046FAC1B22846E2E7000000
:1056200000000020000000000000244070B51C4A6B
:105630000026A2F1100511462B7801445BB102EB64
:10564000C004012B10D0022B04D1087E401C087628
:105650000120687070BD135C5B1CDBB21354097EC3
:105660008B42F7D9165470BD94ED020B9FED0D1BC4
:1056700051EC100B53EC112B01F008F841EC100B1E
:105680009FED0A1B84ED020B53EC112B01F084FB00
:1056900003D29FED080B84ED020B6E7070BD00000D
:1056A000100000209A9999999999B93FCDCCCCCC0A
:1056B000CCCC0040000000000000F03F2DE9F0419C
:1056C000DFF88C8008F10A0425462DED028B88B0A6
:1056D0006F78384601F013FA95ED041B53EC112B4B
:1056E00001F05CFA2E7841EC180B304601F007FA15
:1056F00095ED021B53EC112B01F050FA53EC182BD3
:1057000000F0C4FFCDE900013B46324611A102A8DA
:10571000FAF7BAFE02A8FAF7CBFF82B24FF47A7317
:1057200002A91148FDF7E0FF207E2178401A20767B
:10573000607E6178401A60760020207060700121E0
:1057400088F8001008B0BDEC028BBDE8F0810000C5
:1057500006000020583A25642C593A25642C5A3A00
:1057600025332E31660000003C01002010B500F00A
:1057700019F8012809D002280BD003280BD00428DF
:105780000ED1BDE81040FFF799BFBDE8104000F012
:1057900063B8002000E00120BDE81040FFF746BFDD
:1057A00010BD000070B52A4C01212046FCF778F9A5
:1057B000284E4FF0904570B102212046FCF770F959
:1057C00048B104212046FCF76BF920B1012128469D
:1057D000FCF766F918BB307908B3002030710A2055
:1057E00000F0EAFC01212046FCF75AF978B10221C9
:1057F0002046FCF755F960B104212046FCF750F92A
:1058000048B101212846FCF74BF930B11DE00120D9
:1058100070BD022070BD032070BD042070BD012149
:105820002046FCF73DF980B102212046FCF738F90B
:1058300058B104212046FCF733F930B10121284644
:10584000FCF72EF908B101203071002070BD000076
:1058500000040048000000200648017831B1012909
:1058600006D0022901D10021017070470121FBE718
:105870000221F9E7000000200648007828B101283D
:1058800005D0022805D100F04FB800F0BDB800F0F7
:1058900003B870470000002010B5104C8EB010A166
:1058A00094ED020B684653EC102BFAF7EDFD94EDE6
:1058B000040B11A153EC102B07A8FAF7E5FD14A176
:1058C0001820FEF7F7F869464820FEF7F3F807A915
:1058D0006020FEF7EFF80EB010BD000010000020B1
:1058E0002020202020583A25332E316620202020E9
:1058F00020202020202000002020202020593A2590
:10590000332E31662020202020202020202000005F
:1059100020202020202020205052494345202020B4
:10592000202020200000000010B50D4C8EB00DA1ED
:10593000227E6846FAF7A8FD627E10A107A8FAF752
:10594000A3FD14A11820FEF7B5F869464820FEF71C
:10595000B1F807A96020FEF7ADF80EB010BD000049
:10596000100000202020202020583A2532642020DA
:105970002020202020202020202000002020202067
:1059800020593A2532642020202020202020202069
:1059900020200000202020202020202052455020C0
:1059A000202020202020200010B5FEF7C5F84FF65B
:1059B000FF70FEF72FF90020FEF718F90CA1002068
:1059C000FEF778F80AA13020FEF774F808A17820D5
:1059D000FEF770F806A19020FEF76CF804A1A8204D
:1059E000FEF768F8BDE8104001A1C020FEF762B8DC
:1059F00020202020202020202020202020202020A7
:105A0000202020200000000010B50D4C8EB00DA10C
:105A100022786846FAF738FD627810A107A8FAF7ED
:105A200033FD14A11820FEF745F869464820FEF71B
:105A300041F807A96020FEF73DF80EB010BD000048
:105A4000100000202020202020583A25642020200B
:105A500020202020202020202000000020202020A6
:105A600020593A256420202020202020202020209A
:105A700020000000202020202020202053484F50CC
:105A800020202020202020200000000005484FF486
:105A90008071027804480AB1002200E00122FCF77C
:105AA00004B8000006000020000800480E4A10B5A7
:105AB000137E0E484FF400710BB9527E22B1BDE83F
:105AC00010400122FBF7F1BF074C103CA27822B135
:105AD0000022FBF7EAFF002003E00122FBF7E5FFCD
